{
	"data": {
		"bytecode": {
			"linkReferences": {},
			"object": "608060405234801561000f575f80fd5b506040516135d13803806135d18339818101604052810190610031919061012e565b335f806101000a81548173ffffffffffffffffffffffffffffffffffffffff021916908373ffffffffffffffffffffffffffffffffffffffff16021790555081600181905550805f60146101000a81548160ff021916908360ff1602179055505f8060156101000a81548160ff021916908360038111156100b5576100b461016c565b5b02179055505050610199565b5f80fd5b5f819050919050565b6100d7816100c5565b81146100e1575f80fd5b50565b5f815190506100f2816100ce565b92915050565b5f60ff82169050919050565b61010d816100f8565b8114610117575f80fd5b50565b5f8151905061012881610104565b92915050565b5f8060408385031215610144576101436100c1565b5b5f610151858286016100e4565b92505060206101628582860161011a565b9150509250929050565b7f4e487b71000000000000000000000000000000000000000000000000000000005f52602160045260245ffd5b61342b806101a65f395ff3fe608060405234801561000f575f80fd5b5060043610610086575f3560e01c80639de2ee21116100595780639de2ee21146100da578063b1c9fe6e146100f8578063c2897b1014610116578063f90f45601461012057610086565b80632ae3594a1461008a5780634c2412a214610094578063553df021146100b25780635fe3e36b146100bc575b5f80fd5b61009261012a565b005b61009c610179565b6040516100a99190611d2e565b60405180910390f35b6100ba61018b565b005b6100c461044f565b6040516100d19190611e07565b60405180910390f35b6100e26105da565b6040516100ef9190611e66565b60405180910390f35b6101006105fd565b60405161010d9190611ef2565b60405180910390f35b61011e61060f565b005b61012861065e565b005b610134600361092d565b3373ffffffffffffffffffffffffffffffffffffffff167f7eddbf27696273b85afcfa4ac444b5cbe6a9cb035d808d8e28b25c1fa694a65960405160405180910390a2565b5f60149054906101000a900460ff1681565b5f8054906101000a900473ffffffffffffffffffffffffffffffffffffffff1673ffffffffffffffffffffffffffffffffffffffff163373ffffffffffffffffffffffffffffffffffffffff1614610218576040517f08c379a000000000000000000000000000000000000000000000000000000000815260040161020f90611f65565b60405180910390fd5b610220610afe565b8061022d57506002544210155b61026c576040517f08c379a000000000000000000000000000000000000000000000000000000000815260040161026390611fcd565b60405180910390fd5b5f600380549050116102b3576040517f08c379a00000000000000000000000000000000000000000000000000000000081526004016102aa9061205b565b60405180910390fd5b5f60038111156102c6576102c5611e7f565b5b5f60159054906101000a900460ff1660038111156102e7576102e6611e7f565b5b03610323576102f4610be6565b60015f60156101000a81548160ff0219169083600381111561031957610318611e7f565b5b0217905550610367565b6001600381111561033757610336611e7f565b5b5f60159054906101000a900460ff16600381111561035857610357611e7f565b5b0361036657610365610e43565b5b5b6001600381111561037b5761037a611e7f565b5b5f60159054906101000a900460ff16600381111561039c5761039b611e7f565b5b036103ba57600154426103af91906120a6565b60028190555061044d565b6003808111156103cd576103cc611e7f565b5b5f60159054906101000a900460ff1660038111156103ee576103ed611e7f565b5b03610408576103fb61107b565b610403611444565b61044c565b6002600381111561041c5761041b611e7f565b5b5f60159054906101000a900460ff16600381111561043d5761043c611e7f565b5b0361044b5761044a611444565b5b5b5b565b60605f60045f3373ffffffffffffffffffffffffffffffffffffffff1673ffffffffffffffffffffffffffffffffffffffff1681526020019081526020015f2080548060200260200160405190810160405280929190818152602001828054801561050a57602002820191905f5260205f20905f905b82829054906101000a900460ff16600c8111156104e5576104e4611e7f565b5b815260200190600101906020825f010492830192600103820291508084116104c55790505b505050505090505f815167ffffffffffffffff81111561052d5761052c6120d9565b5b60405190808252806020026020018201604052801561055b5781602001602082028036833780820191505090505b5090505f5b82518110156105d157600160ff1683828151811061058157610580612106565b5b6020026020010151600c81111561059b5761059a611e7f565b5b6105a591906120a6565b8282815181106105b8576105b7612106565b5b6020026020010181815250508080600101915050610560565b50809250505090565b5f8054906101000a900473ffffffffffffffffffffffffffffffffffffffff1681565b5f60159054906101000a900460ff1681565b610619600461092d565b3373ffffffffffffffffffffffffffffffffffffffff167fcbe57ba0262dc3a1cbaf4b18552f05b3ae49736af8011369b89319b35dc2037560405160405180910390a2565b5f8054906101000a900473ffffffffffffffffffffffffffffffffffffffff1673ffffffffffffffffffffffffffffffffffffffff163373ffffffffffffffffffffffffffffffffffffffff16036106eb576040517f08c379a00000000000000000000000000000000000000000000000000000000081526004016106e29061217d565b60405180910390fd5b5f60038111156106fe576106fd611e7f565b5b5f60159054906101000a900460ff16600381111561071f5761071e611e7f565b5b1461075f576040517f08c379a0000000000000000000000000000000000000000000000000000000008152600401610756906121e5565b60405180910390fd5b5f600481111561077257610771611e7f565b5b60055f3373ffffffffffffffffffffffffffffffffffffffff1673ffffffffffffffffffffffffffffffffffffffff1681526020019081526020015f205f9054906101000a900460ff1660048111156107ce576107cd611e7f565b5b1461080e576040517f08c379a00000000000000000000000000000000000000000000000000000000081526004016108059061224d565b60405180910390fd5b5f60149054906101000a900460ff1660ff1660038054905010610866576040517f08c379a000000000000000000000000000000000000000000000000000000000815260040161085d906122db565b60405180910390fd5b600333908060018154018082558091505060019003905f5260205f20015f9091909190916101000a81548173ffffffffffffffffffffffffffffffffffffffff021916908373ffffffffffffffffffffffffffffffffffffffff160217905550600160055f3373ffffffffffffffffffffffffffffffffffffffff1673ffffffffffffffffffffffffffffffffffffffff1681526020019081526020015f205f6101000a81548160ff0219169083600481111561092657610925611e7f565b5b0217905550565b6001600481111561094157610940611e7f565b5b60055f3373ffffffffffffffffffffffffffffffffffffffff1673ffffffffffffffffffffffffffffffffffffffff1681526020019081526020015f205f9054906101000a900460ff16600481111561099d5761099c611e7f565b5b146109dd576040517f08c379a00000000000000000000000000000000000000000000000000000000081526004016109d490612369565b60405180910390fd5b600160038111156109f1576109f0611e7f565b5b5f60159054906101000a900460ff166003811115610a1257610a11611e7f565b5b14610a52576040517f08c379a0000000000000000000000000000000000000000000000000000000008152600401610a49906123f7565b60405180910390fd5b600254421115610a97576040517f08c379a0000000000000000000000000000000000000000000000000000000008152600401610a8e90612485565b60405180910390fd5b8060055f3373ffffffffffffffffffffffffffffffffffffffff1673ffffffffffffffffffffffffffffffffffffffff1681526020019081526020015f205f6101000a81548160ff02191690836004811115610af657610af5611e7f565b5b021790555050565b5f805f90505b600380549050811015610bdd575f60055f60038481548110610b2957610b28612106565b5b905f5260205f20015f9054906101000a900473ffffffffffffffffffffffffffffffffffffffff1673ffffffffffffffffffffffffffffffffffffffff1673ffffffffffffffffffffffffffffffffffffffff1681526020019081526020015f205f9054906101000a900460ff16905060016004811115610bad57610bac611e7f565b5b816004811115610bc057610bbf611e7f565b5b03610bcf575f92505050610be3565b508080600101915050610b04565b50600190505b90565b5f5b600380549050811015610d6c575f60038281548110610c0a57610c09612106565b5b905f5260205f20015f9054906101000a900473ffffffffffffffffffffffffffffffffffffffff16905060045f8273ffffffffffffffffffffffffffffffffffffffff1673ffffffffffffffffffffffffffffffffffffffff1681526020019081526020015f20610c7a826115bb565b908060018154018082558091505060019003905f5260205f2090602091828204019190069091909190916101000a81548160ff0219169083600c811115610cc457610cc3611e7f565b5b021790555060045f8273ffffffffffffffffffffffffffffffffffffffff1673ffffffffffffffffffffffffffffffffffffffff1681526020019081526020015f20610d0f826115bb565b908060018154018082558091505060019003905f5260205f2090602091828204019190069091909190916101000a81548160ff0219169083600c811115610d5957610d58611e7f565b5b0217905550508080600101915050610be8565b5060045f805f9054906101000a900473ffffffffffffffffffffffffffffffffffffffff1673ffffffffffffffffffffffffffffffffffffffff1673ffffffffffffffffffffffffffffffffffffffff1681526020019081526020015f20610df25f8054906101000a900473ffffffffffffffffffffffffffffffffffffffff166115bb565b908060018154018082558091505060019003905f5260205f2090602091828204019190069091909190916101000a81548160ff0219169083600c811115610e3c57610e3b611e7f565b5b0217905550565b5f805f5b60038054905081101561106c575f60038281548110610e6957610e68612106565b5b905f5260205f20015f9054906101000a900473ffffffffffffffffffffffffffffffffffffffff1690505f60055f8373ffffffffffffffffffffffffffffffffffffffff1673ffffffffffffffffffffffffffffffffffffffff1681526020019081526020015f205f9054906101000a900460ff16905060036004811115610ef457610ef3611e7f565b5b816004811115610f0757610f06611e7f565b5b03610f1a57610f15826115ed565b610f51565b60016004811115610f2e57610f2d611e7f565b5b816004811115610f4157610f40611e7f565b5b03610f5057610f4f82611868565b5b5b600480811115610f6457610f63611e7f565b5b60055f8473ffffffffffffffffffffffffffffffffffffffff1673ffffffffffffffffffffffffffffffffffffffff1681526020019081526020015f205f9054906101000a900460ff166004811115610fc057610fbf611e7f565b5b03610fd8578380610fd0906124a3565b94505061105d565b60026004811115610fec57610feb611e7f565b5b60055f8473ffffffffffffffffffffffffffffffffffffffff1673ffffffffffffffffffffffffffffffffffffffff1681526020019081526020015f205f9054906101000a900460ff16600481111561104857611047611e7f565b5b0361105c578480611058906124a3565b9550505b5b50508080600101915050610e47565b506110778282611913565b5050565b6001600381111561108f5761108e611e7f565b5b5f60159054906101000a900460ff1660038111156110b0576110af611e7f565b5b03611442575b601160ff166111a060045f805f9054906101000a900473ffffffffffffffffffffffffffffffffffffffff1673ffffffffffffffffffffffffffffffffffffffff1673ffffffffffffffffffffffffffffffffffffffff1681526020019081526020015f2080548060200260200160405190810160405280929190818152602001828054801561119657602002820191905f5260205f20905f905b82829054906101000a900460ff16600c81111561117157611170611e7f565b5b815260200190600101906020825f010492830192600103820291508084116111515790505b5050505050611995565b101561127f5760045f805f9054906101000a900473ffffffffffffffffffffffffffffffffffffffff1673ffffffffffffffffffffffffffffffffffffffff1673ffffffffffffffffffffffffffffffffffffffff1681526020019081526020015f2061122b5f8054906101000a900473ffffffffffffffffffffffffffffffffffffffff166115bb565b908060018154018082558091505060019003905f5260205f2090602091828204019190069091909190916101000a81548160ff0219169083600c81111561127557611274611e7f565b5b02179055506110b6565b601560ff1661136960045f805f9054906101000a900473ffffffffffffffffffffffffffffffffffffffff1673ffffffffffffffffffffffffffffffffffffffff1673ffffffffffffffffffffffffffffffffffffffff1681526020019081526020015f2080548060200260200160405190810160405280929190818152602001828054801561135f57602002820191905f5260205f20905f905b82829054906101000a900460ff16600c81111561133a57611339611e7f565b5b815260200190600101906020825f0104928301926001038202915080841161131a5790505b5050505050611995565b11156113de57611377611aaa565b5f8054906101000a900473ffffffffffffffffffffffffffffffffffffffff1673ffffffffffffffffffffffffffffffffffffffff167ffd11b87f2af9b86645a7a933e90e504d91320eaf8bd112573a23a3ca82d56c5e60405160405180910390a2611441565b5f8054906101000a900473ffffffffffffffffffffffffffffffffffffffff1673ffffffffffffffffffffffffffffffffffffffff167fc94e26bc371c19185b9e577ef339d2a5bca910d48092cbb160550b311ddd8d9860405160405180910390a25b5b565b5f8060156101000a81548160ff0219169083600381111561146857611467611e7f565b5b02179055505f5b6003805490508110156115ab5760045f6003838154811061149357611492612106565b5b905f5260205f20015f9054906101000a900473ffffffffffffffffffffffffffffffffffffffff1673ffffffffffffffffffffffffffffffffffffffff1673ffffffffffffffffffffffffffffffffffffffff1681526020019081526020015f205f6114ff9190611cb5565b5f60055f6003848154811061151757611516612106565b5b905f5260205f20015f9054906101000a900473ffffffffffffffffffffffffffffffffffffffff1673ffffffffffffffffffffffffffffffffffffffff1673ffffffffffffffffffffffffffffffffffffffff1681526020019081526020015f205f6101000a81548160ff0219169083600481111561159957611598611e7f565b5b0217905550808060010191505061146f565b5060035f6115b99190611cda565b565b5f600d60ff166115ca83611bf7565b6115d49190612517565b600c8111156115e6576115e5611e7f565b5b9050919050565b60045f8273ffffffffffffffffffffffffffffffffffffffff1673ffffffffffffffffffffffffffffffffffffffff1681526020019081526020015f20611633826115bb565b908060018154018082558091505060019003905f5260205f2090602091828204019190069091909190916101000a81548160ff0219169083600c81111561167d5761167c611e7f565b5b0217905550601560ff1661174c60045f8473ffffffffffffffffffffffffffffffffffffffff1673ffffffffffffffffffffffffffffffffffffffff1681526020019081526020015f2080548060200260200160405190810160405280929190818152602001828054801561174257602002820191905f5260205f20905f905b82829054906101000a900460ff16600c81111561171d5761171c611e7f565b5b815260200190600101906020825f010492830192600103820291508084116116fd5790505b5050505050611995565b11156117ff578073ffffffffffffffffffffffffffffffffffffffff167ffd11b87f2af9b86645a7a933e90e504d91320eaf8bd112573a23a3ca82d56c5e60405160405180910390a2600260055f8373ffffffffffffffffffffffffffffffffffffffff1673ffffffffffffffffffffffffffffffffffffffff1681526020019081526020015f205f6101000a81548160ff021916908360048111156117f5576117f4611e7f565b5b0217905550611865565b600160055f8373ffffffffffffffffffffffffffffffffffffffff1673ffffffffffffffffffffffffffffffffffffffff1681526020019081526020015f205f6101000a81548160ff0219169083600481111561185f5761185e611e7f565b5b02179055505b50565b8073ffffffffffffffffffffffffffffffffffffffff167fcbe57ba0262dc3a1cbaf4b18552f05b3ae49736af8011369b89319b35dc2037560405160405180910390a2600460055f8373ffffffffffffffffffffffffffffffffffffffff1673ffffffffffffffffffffffffffffffffffffffff1681526020019081526020015f205f6101000a81548160ff0219169083600481111561190b5761190a611e7f565b5b021790555050565b600380549050820361194e5760025f60156101000a81548160ff0219169083600381111561194457611943611e7f565b5b0217905550611991565b600380549050818361196091906120a6565b036119905760035f60156101000a81548160ff0219169083600381111561198a57611989611e7f565b5b02179055505b5b5050565b5f805f90505f5b8351811015611a5c576119ee600160ff168583815181106119c0576119bf612106565b5b6020026020010151600c8111156119da576119d9611e7f565b5b6119e491906120a6565b600a60ff16611c7b565b836119f991906120a6565b92505f600c811115611a0e57611a0d611e7f565b5b848281518110611a2157611a20612106565b5b6020026020010151600c811115611a3b57611a3a611e7f565b5b03611a4f578180611a4b906124a3565b9250505b808060010191505061199c565b505b5f81118015611a7d5750601560ff16600a83611a7a91906120a6565b11155b15611aa457600a82611a8f91906120a6565b91508080611a9c90612547565b915050611a5e565b50919050565b5f5b600380549050811015611bf457600480811115611acc57611acb611e7f565b5b60055f60038481548110611ae357611ae2612106565b5b905f5260205f20015f9054906101000a900473ffffffffffffffffffffffffffffffffffffffff1673ffffffffffffffffffffffffffffffffffffffff1673ffffffffffffffffffffffffffffffffffffffff1681526020019081526020015f205f9054906101000a900460ff166004811115611b6357611b62611e7f565b5b03611be75760038181548110611b7c57611b7b612106565b5b905f5260205f20015f9054906101000a900473ffffffffffffffffffffffffffffffffffffffff1673ffffffffffffffffffffffffffffffffffffffff167fc94e26bc371c19185b9e577ef339d2a5bca910d48092cbb160550b311ddd8d9860405160405180910390a25b8080600101915050611aac565b50565b5f81424344600143611c09919061256e565b4060045f8873ffffffffffffffffffffffffffffffffffffffff1673ffffffffffffffffffffffffffffffffffffffff1681526020019081526020015f20604051602001611c5c9695949392919061338a565b604051602081830303815290604052805190602001205f1c9050919050565b5f611c898284108484611c91565b905092915050565b5f611c9b84611caa565b82841802821890509392505050565b5f8115159050919050565b5080545f8255601f0160209004905f5260205f2090810190611cd79190611cf8565b50565b5080545f8255905f5260205f2090810190611cf59190611cf8565b50565b5b80821115611d0f575f815f905550600101611cf9565b5090565b5f60ff82169050919050565b611d2881611d13565b82525050565b5f602082019050611d415f830184611d1f565b92915050565b5f81519050919050565b5f82825260208201905092915050565b5f819050602082019050919050565b5f819050919050565b611d8281611d70565b82525050565b5f611d938383611d79565b60208301905092915050565b5f602082019050919050565b5f611db582611d47565b611dbf8185611d51565b9350611dca83611d61565b805f5b83811015611dfa578151611de18882611d88565b9750611dec83611d9f565b925050600181019050611dcd565b5085935050505092915050565b5f6020820190508181035f830152611e1f8184611dab565b905092915050565b5f73ffffffffffffffffffffffffffffffffffffffff82169050919050565b5f611e5082611e27565b9050919050565b611e6081611e46565b82525050565b5f602082019050611e795f830184611e57565b92915050565b7f4e487b71000000000000000000000000000000000000000000000000000000005f52602160045260245ffd5b60048110611ebd57611ebc611e7f565b5b50565b5f819050611ecd82611eac565b919050565b5f611edc82611ec0565b9050919050565b611eec81611ed2565b82525050565b5f602082019050611f055f830184611ee3565b92915050565b5f82825260208201905092915050565b7f4f6e6c7920746865206465616c65722063616e206465616c2e000000000000005f82015250565b5f611f4f601983611f0b565b9150611f5a82611f1b565b602082019050919050565b5f6020820190508181035f830152611f7c81611f43565b9050919050565b7f43757272656e7420726f756e64206973207374696c6c2072756e6e696e672e005f82015250565b5f611fb7601f83611f0b565b9150611fc282611f83565b602082019050919050565b5f6020820190508181035f830152611fe481611fab565b9050919050565b7f4e6f20706c617965727320617265207265676973746572656420666f722074685f8201527f697320726f756e642e0000000000000000000000000000000000000000000000602082015250565b5f612045602983611f0b565b915061205082611feb565b604082019050919050565b5f6020820190508181035f83015261207281612039565b9050919050565b7f4e487b71000000000000000000000000000000000000000000000000000000005f52601160045260245ffd5b5f6120b082611d70565b91506120bb83611d70565b92508282019050808211156120d3576120d2612079565b5b92915050565b7f4e487b71000000000000000000000000000000000000000000000000000000005f52604160045260245ffd5b7f4e487b71000000000000000000000000000000000000000000000000000000005f52603260045260245ffd5b7f4465616c65722063616e6e6f7420706c61636520626574732e000000000000005f82015250565b5f612167601983611f0b565b915061217282612133565b602082019050919050565b5f6020820190508181035f8301526121948161215b565b9050919050565b7f4e6f742074616b696e6720616e79206e657720706c61796572732e00000000005f82015250565b5f6121cf601b83611f0b565b91506121da8261219b565b602082019050919050565b5f6020820190508181035f8301526121fc816121c3565b9050919050565b7f506c6179657220697320616c726561647920696e207468652067616d652e00005f82015250565b5f612237601e83611f0b565b915061224282612203565b602082019050919050565b5f6020820190508181035f8301526122648161222b565b9050919050565b7f4d6178696d756d206e756d626572206f6620706c6179657273207265616368655f8201527f642e000000000000000000000000000000000000000000000000000000000000602082015250565b5f6122c5602283611f0b565b91506122d08261226b565b604082019050919050565b5f6020820190508181035f8301526122f2816122b9565b9050919050565b7f506c617965722063616e6e6f7420686974206f72207374616e642063757272655f8201527f6e746c792e000000000000000000000000000000000000000000000000000000602082015250565b5f612353602583611f0b565b915061235e826122f9565b604082019050919050565b5f6020820190508181035f83015261238081612347565b9050919050565b7f43757272656e746c79206e6f7420616c6c6f77696e6720686974206f722073745f8201527f616e6420616374696f6e732e0000000000000000000000000000000000000000602082015250565b5f6123e1602c83611f0b565b91506123ec82612387565b604082019050919050565b5f6020820190508181035f83015261240e816123d5565b9050919050565b7f526f756e6420646f6573206e6f742061636365707420616e79206d6f726520635f8201527f68616e6765732e00000000000000000000000000000000000000000000000000602082015250565b5f61246f602783611f0b565b915061247a82612415565b604082019050919050565b5f6020820190508181035f83015261249c81612463565b9050919050565b5f6124ad82611d70565b91507fffffffffffffffffffffffffffffffffffffffffffffffffffffffffffffffff82036124df576124de612079565b5b600182019050919050565b7f4e487b71000000000000000000000000000000000000000000000000000000005f52601260045260245ffd5b5f61252182611d70565b915061252c83611d70565b92508261253c5761253b6124ea565b5b828206905092915050565b5f61255182611d70565b91505f820361256357612562612079565b5b600182039050919050565b5f61257882611d70565b915061258383611d70565b925082820390508181111561259b5761259a612079565b5b92915050565b5f8160601b9050919050565b5f6125b7826125a1565b9050919050565b5f6125c8826125ad565b9050919050565b6125e06125db82611e46565b6125be565b82525050565b5f819050919050565b6126006125fb82611d70565b6125e6565b82525050565b5f819050919050565b5f819050919050565b61262961262482612606565b61260f565b82525050565b5f81549050919050565b5f81905092915050565b5f819050815f5260205f209050919050565b600d811061266657612665611e7f565b5b50565b5f81905061267682612655565b919050565b5f61268582612669565b9050919050565b6126958161267b565b82525050565b5f815f1c9050919050565b5f60ff82169050919050565b5f6126c46126bf8361269b565b6126a6565b9050919050565b5f8160081c9050919050565b5f6126e96126e4836126cb565b6126a6565b9050919050565b5f8160101c9050919050565b5f61270e612709836126f0565b6126a6565b9050919050565b5f8160181c9050919050565b5f61273361272e83612715565b6126a6565b9050919050565b5f8160201c9050919050565b5f6127586127538361273a565b6126a6565b9050919050565b5f8160281c9050919050565b5f61277d6127788361275f565b6126a6565b9050919050565b5f8160301c9050919050565b5f6127a261279d83612784565b6126a6565b9050919050565b5f8160381c9050919050565b5f6127c76127c2836127a9565b6126a6565b9050919050565b5f8160401c9050919050565b5f6127ec6127e7836127ce565b6126a6565b9050919050565b5f8160481c9050919050565b5f61281161280c836127f3565b6126a6565b9050919050565b5f8160501c9050919050565b5f61283661283183612818565b6126a6565b9050919050565b5f8160581c9050919050565b5f61285b6128568361283d565b6126a6565b9050919050565b5f8160601c9050919050565b5f61288061287b83612862565b6126a6565b9050919050565b5f8160681c9050919050565b5f6128a56128a083612887565b6126a6565b9050919050565b5f8160701c9050919050565b5f6128ca6128c5836128ac565b6126a6565b9050919050565b5f8160781c9050919050565b5f6128ef6128ea836128d1565b6126a6565b9050919050565b5f8160801c9050919050565b5f61291461290f836128f6565b6126a6565b9050919050565b5f8160881c9050919050565b5f6129396129348361291b565b6126a6565b9050919050565b5f8160901c9050919050565b5f61295e61295983612940565b6126a6565b9050919050565b5f8160981c9050919050565b5f61298361297e83612965565b6126a6565b9050919050565b5f8160a01c9050919050565b5f6129a86129a38361298a565b6126a6565b9050919050565b5f8160a81c9050919050565b5f6129cd6129c8836129af565b6126a6565b9050919050565b5f8160b01c9050919050565b5f6129f26129ed836129d4565b6126a6565b9050919050565b5f8160b81c9050919050565b5f612a17612a12836129f9565b6126a6565b9050919050565b5f8160c01c9050919050565b5f612a3c612a3783612a1e565b6126a6565b9050919050565b5f8160c81c9050919050565b5f612a61612a5c83612a43565b6126a6565b9050919050565b5f8160d01c9050919050565b5f612a86612a8183612a68565b6126a6565b9050919050565b5f8160d81c9050919050565b5f612aab612aa683612a8d565b6126a6565b9050919050565b5f8160e01c9050919050565b5f612ad0612acb83612ab2565b6126a6565b9050919050565b5f8160e81c9050919050565b5f612af5612af083612ad7565b6126a6565b9050919050565b5f8160f01c9050919050565b5f612b1a612b1583612afc565b6126a6565b9050919050565b5f8160f81c9050919050565b5f612b3f612b3a83612b21565b6126a6565b9050919050565b5f612b508261262f565b612b5a8185612639565b935083612b6684612643565b5f600115612e92575b83600160200382011015612e91578154612b9188612b8c836126b2565b61268c565b602088019750612ba988612ba4836126d7565b61268c565b602088019750612bc188612bbc836126fc565b61268c565b602088019750612bd988612bd483612721565b61268c565b602088019750612bf188612bec83612746565b61268c565b602088019750612c0988612c048361276b565b61268c565b602088019750612c2188612c1c83612790565b61268c565b602088019750612c3988612c34836127b5565b61268c565b602088019750612c5188612c4c836127da565b61268c565b602088019750612c6988612c64836127ff565b61268c565b602088019750612c8188612c7c83612824565b61268c565b602088019750612c9988612c9483612849565b61268c565b602088019750612cb188612cac8361286e565b61268c565b602088019750612cc988612cc483612893565b61268c565b602088019750612ce188612cdc836128b8565b61268c565b602088019750612cf988612cf4836128dd565b61268c565b602088019750612d1188612d0c83612902565b61268c565b602088019750612d2988612d2483612927565b61268c565b602088019750612d4188612d3c8361294c565b61268c565b602088019750612d5988612d5483612971565b61268c565b602088019750612d7188612d6c83612996565b61268c565b602088019750612d8988612d84836129bb565b61268c565b602088019750612da188612d9c836129e0565b61268c565b602088019750612db988612db483612a05565b61268c565b602088019750612dd188612dcc83612a2a565b61268c565b602088019750612de988612de483612a4f565b61268c565b602088019750612e0188612dfc83612a74565b61268c565b602088019750612e1988612e1483612a99565b61268c565b602088019750612e3188612e2c83612abe565b61268c565b602088019750612e4988612e4483612ae3565b61268c565b602088019750612e6188612e5c83612b08565b61268c565b602088019750612e7988612e7483612b2d565b61268c565b60208801975060018301925050602081019050612b6f565b5b60011561337d57815484821015612ec257612eb588612eb0836126b2565b61268c565b6020880197506001820191505b84821015612ee957612edc88612ed7836126d7565b61268c565b6020880197506001820191505b84821015612f1057612f0388612efe836126fc565b61268c565b6020880197506001820191505b84821015612f3757612f2a88612f2583612721565b61268c565b6020880197506001820191505b84821015612f5e57612f5188612f4c83612746565b61268c565b6020880197506001820191505b84821015612f8557612f7888612f738361276b565b61268c565b6020880197506001820191505b84821015612fac57612f9f88612f9a83612790565b61268c565b6020880197506001820191505b84821015612fd357612fc688612fc1836127b5565b61268c565b6020880197506001820191505b84821015612ffa57612fed88612fe8836127da565b61268c565b6020880197506001820191505b84821015613021576130148861300f836127ff565b61268c565b6020880197506001820191505b848210156130485761303b8861303683612824565b61268c565b6020880197506001820191505b8482101561306f576130628861305d83612849565b61268c565b6020880197506001820191505b8482101561309657613089886130848361286e565b61268c565b6020880197506001820191505b848210156130bd576130b0886130ab83612893565b61268c565b6020880197506001820191505b848210156130e4576130d7886130d2836128b8565b61268c565b6020880197506001820191505b8482101561310b576130fe886130f9836128dd565b61268c565b6020880197506001820191505b84821015613132576131258861312083612902565b61268c565b6020880197506001820191505b848210156131595761314c8861314783612927565b61268c565b6020880197506001820191505b84821015613180576131738861316e8361294c565b61268c565b6020880197506001820191505b848210156131a75761319a8861319583612971565b61268c565b6020880197506001820191505b848210156131ce576131c1886131bc83612996565b61268c565b6020880197506001820191505b848210156131f5576131e8886131e3836129bb565b61268c565b6020880197506001820191505b8482101561321c5761320f8861320a836129e0565b61268c565b6020880197506001820191505b84821015613243576132368861323183612a05565b61268c565b6020880197506001820191505b8482101561326a5761325d8861325883612a2a565b61268c565b6020880197506001820191505b84821015613291576132848861327f83612a4f565b61268c565b6020880197506001820191505b848210156132b8576132ab886132a683612a74565b61268c565b6020880197506001820191505b848210156132df576132d2886132cd83612a99565b61268c565b6020880197506001820191505b84821015613306576132f9886132f483612abe565b61268c565b6020880197506001820191505b8482101561332d576133208861331b83612ae3565b61268c565b6020880197506001820191505b84821015613354576133478861334283612b08565b61268c565b6020880197506001820191505b8482101561337b5761336e8861336983612b2d565b61268c565b6020880197506001820191505b505b8694505050505092915050565b5f61339582896125cf565b6014820191506133a582886125ef565b6020820191506133b582876125ef565b6020820191506133c582866125ef565b6020820191506133d58285612618565b6020820191506133e58284612b46565b915081905097965050505050505056fea2646970667358221220c491f21116f53904f4761e41ba8590f7d0bfc32bc7fdc6be8c479598cd1b317f64736f6c634300081a0033",
			"opcodes": "PUSH1 0x80 PUSH1 0x40 MSTORE CALLVALUE DUP1 ISZERO PUSH2 0xF JUMPI PUSH0 DUP1 REVERT JUMPDEST POP PUSH1 0x40 MLOAD PUSH2 0x35D1 CODESIZE SUB DUP1 PUSH2 0x35D1 DUP4 CODECOPY DUP2 DUP2 ADD PUSH1 0x40 MSTORE DUP2 ADD SWAP1 PUSH2 0x31 SWAP2 SWAP1 PUSH2 0x12E JUMP JUMPDEST CALLER PUSH0 DUP1 PUSH2 0x100 EXP DUP2 SLOAD DUP2 PUSH20 0xFFFFFFFFFFFFFFFFFFFFFFFFFFFFFFFFFFFFFFFF MUL NOT AND SWAP1 DUP4 PUSH20 0xFFFFFFFFFFFFFFFFFFFFFFFFFFFFFFFFFFFFFFFF AND MUL OR SWAP1 SSTORE POP DUP2 PUSH1 0x1 DUP2 SWAP1 SSTORE POP DUP1 PUSH0 PUSH1 0x14 PUSH2 0x100 EXP DUP2 SLOAD DUP2 PUSH1 0xFF MUL NOT AND SWAP1 DUP4 PUSH1 0xFF AND MUL OR SWAP1 SSTORE POP PUSH0 DUP1 PUSH1 0x15 PUSH2 0x100 EXP DUP2 SLOAD DUP2 PUSH1 0xFF MUL NOT AND SWAP1 DUP4 PUSH1 0x3 DUP2 GT ISZERO PUSH2 0xB5 JUMPI PUSH2 0xB4 PUSH2 0x16C JUMP JUMPDEST JUMPDEST MUL OR SWAP1 SSTORE POP POP POP PUSH2 0x199 JUMP JUMPDEST PUSH0 DUP1 REVERT JUMPDEST PUSH0 DUP2 SWAP1 POP SWAP2 SWAP1 POP JUMP JUMPDEST PUSH2 0xD7 DUP2 PUSH2 0xC5 JUMP JUMPDEST DUP2 EQ PUSH2 0xE1 JUMPI PUSH0 DUP1 REVERT JUMPDEST POP JUMP JUMPDEST PUSH0 DUP2 MLOAD SWAP1 POP PUSH2 0xF2 DUP2 PUSH2 0xCE JUMP JUMPDEST SWAP3 SWAP2 POP POP JUMP JUMPDEST PUSH0 PUSH1 0xFF DUP3 AND SWAP1 POP SWAP2 SWAP1 POP JUMP JUMPDEST PUSH2 0x10D DUP2 PUSH2 0xF8 JUMP JUMPDEST DUP2 EQ PUSH2 0x117 JUMPI PUSH0 DUP1 REVERT JUMPDEST POP JUMP JUMPDEST PUSH0 DUP2 MLOAD SWAP1 POP PUSH2 0x128 DUP2 PUSH2 0x104 JUMP JUMPDEST SWAP3 SWAP2 POP POP JUMP JUMPDEST PUSH0 DUP1 PUSH1 0x40 DUP4 DUP6 SUB SLT ISZERO PUSH2 0x144 JUMPI PUSH2 0x143 PUSH2 0xC1 JUMP JUMPDEST JUMPDEST PUSH0 PUSH2 0x151 DUP6 DUP3 DUP7 ADD PUSH2 0xE4 JUMP JUMPDEST SWAP3 POP POP PUSH1 0x20 PUSH2 0x162 DUP6 DUP3 DUP7 ADD PUSH2 0x11A JUMP JUMPDEST SWAP2 POP POP SWAP3 POP SWAP3 SWAP1 POP JUMP JUMPDEST PUSH32 0x4E487B7100000000000000000000000000000000000000000000000000000000 PUSH0 MSTORE PUSH1 0x21 PUSH1 0x4 MSTORE PUSH1 0x24 PUSH0 REVERT JUMPDEST PUSH2 0x342B DUP1 PUSH2 0x1A6 PUSH0 CODECOPY PUSH0 RETURN INVALID PUSH1 0x80 PUSH1 0x40 MSTORE CALLVALUE DUP1 ISZERO PUSH2 0xF JUMPI PUSH0 DUP1 REVERT JUMPDEST POP PUSH1 0x4 CALLDATASIZE LT PUSH2 0x86 JUMPI PUSH0 CALLDATALOAD PUSH1 0xE0 SHR DUP1 PUSH4 0x9DE2EE21 GT PUSH2 0x59 JUMPI DUP1 PUSH4 0x9DE2EE21 EQ PUSH2 0xDA JUMPI DUP1 PUSH4 0xB1C9FE6E EQ PUSH2 0xF8 JUMPI DUP1 PUSH4 0xC2897B10 EQ PUSH2 0x116 JUMPI DUP1 PUSH4 0xF90F4560 EQ PUSH2 0x120 JUMPI PUSH2 0x86 JUMP JUMPDEST DUP1 PUSH4 0x2AE3594A EQ PUSH2 0x8A JUMPI DUP1 PUSH4 0x4C2412A2 EQ PUSH2 0x94 JUMPI DUP1 PUSH4 0x553DF021 EQ PUSH2 0xB2 JUMPI DUP1 PUSH4 0x5FE3E36B EQ PUSH2 0xBC JUMPI JUMPDEST PUSH0 DUP1 REVERT JUMPDEST PUSH2 0x92 PUSH2 0x12A JUMP JUMPDEST STOP JUMPDEST PUSH2 0x9C PUSH2 0x179 JUMP JUMPDEST PUSH1 0x40 MLOAD PUSH2 0xA9 SWAP2 SWAP1 PUSH2 0x1D2E JUMP JUMPDEST PUSH1 0x40 MLOAD DUP1 SWAP2 SUB SWAP1 RETURN JUMPDEST PUSH2 0xBA PUSH2 0x18B JUMP JUMPDEST STOP JUMPDEST PUSH2 0xC4 PUSH2 0x44F JUMP JUMPDEST PUSH1 0x40 MLOAD PUSH2 0xD1 SWAP2 SWAP1 PUSH2 0x1E07 JUMP JUMPDEST PUSH1 0x40 MLOAD DUP1 SWAP2 SUB SWAP1 RETURN JUMPDEST PUSH2 0xE2 PUSH2 0x5DA JUMP JUMPDEST PUSH1 0x40 MLOAD PUSH2 0xEF SWAP2 SWAP1 PUSH2 0x1E66 JUMP JUMPDEST PUSH1 0x40 MLOAD DUP1 SWAP2 SUB SWAP1 RETURN JUMPDEST PUSH2 0x100 PUSH2 0x5FD JUMP JUMPDEST PUSH1 0x40 MLOAD PUSH2 0x10D SWAP2 SWAP1 PUSH2 0x1EF2 JUMP JUMPDEST PUSH1 0x40 MLOAD DUP1 SWAP2 SUB SWAP1 RETURN JUMPDEST PUSH2 0x11E PUSH2 0x60F JUMP JUMPDEST STOP JUMPDEST PUSH2 0x128 PUSH2 0x65E JUMP JUMPDEST STOP JUMPDEST PUSH2 0x134 PUSH1 0x3 PUSH2 0x92D JUMP JUMPDEST CALLER PUSH20 0xFFFFFFFFFFFFFFFFFFFFFFFFFFFFFFFFFFFFFFFF AND PUSH32 0x7EDDBF27696273B85AFCFA4AC444B5CBE6A9CB035D808D8E28B25C1FA694A659 PUSH1 0x40 MLOAD PUSH1 0x40 MLOAD DUP1 SWAP2 SUB SWAP1 LOG2 JUMP JUMPDEST PUSH0 PUSH1 0x14 SWAP1 SLOAD SWAP1 PUSH2 0x100 EXP SWAP1 DIV PUSH1 0xFF AND DUP2 JUMP JUMPDEST PUSH0 DUP1 SLOAD SWAP1 PUSH2 0x100 EXP SWAP1 DIV PUSH20 0xFFFFFFFFFFFFFFFFFFFFFFFFFFFFFFFFFFFFFFFF AND PUSH20 0xFFFFFFFFFFFFFFFFFFFFFFFFFFFFFFFFFFFFFFFF AND CALLER PUSH20 0xFFFFFFFFFFFFFFFFFFFFFFFFFFFFFFFFFFFFFFFF AND EQ PUSH2 0x218 JUMPI PUSH1 0x40 MLOAD PUSH32 0x8C379A000000000000000000000000000000000000000000000000000000000 DUP2 MSTORE PUSH1 0x4 ADD PUSH2 0x20F SWAP1 PUSH2 0x1F65 JUMP JUMPDEST PUSH1 0x40 MLOAD DUP1 SWAP2 SUB SWAP1 REVERT JUMPDEST PUSH2 0x220 PUSH2 0xAFE JUMP JUMPDEST DUP1 PUSH2 0x22D JUMPI POP PUSH1 0x2 SLOAD TIMESTAMP LT ISZERO JUMPDEST PUSH2 0x26C JUMPI PUSH1 0x40 MLOAD PUSH32 0x8C379A000000000000000000000000000000000000000000000000000000000 DUP2 MSTORE PUSH1 0x4 ADD PUSH2 0x263 SWAP1 PUSH2 0x1FCD JUMP JUMPDEST PUSH1 0x40 MLOAD DUP1 SWAP2 SUB SWAP1 REVERT JUMPDEST PUSH0 PUSH1 0x3 DUP1 SLOAD SWAP1 POP GT PUSH2 0x2B3 JUMPI PUSH1 0x40 MLOAD PUSH32 0x8C379A000000000000000000000000000000000000000000000000000000000 DUP2 MSTORE PUSH1 0x4 ADD PUSH2 0x2AA SWAP1 PUSH2 0x205B JUMP JUMPDEST PUSH1 0x40 MLOAD DUP1 SWAP2 SUB SWAP1 REVERT JUMPDEST PUSH0 PUSH1 0x3 DUP2 GT ISZERO PUSH2 0x2C6 JUMPI PUSH2 0x2C5 PUSH2 0x1E7F JUMP JUMPDEST JUMPDEST PUSH0 PUSH1 0x15 SWAP1 SLOAD SWAP1 PUSH2 0x100 EXP SWAP1 DIV PUSH1 0xFF AND PUSH1 0x3 DUP2 GT ISZERO PUSH2 0x2E7 JUMPI PUSH2 0x2E6 PUSH2 0x1E7F JUMP JUMPDEST JUMPDEST SUB PUSH2 0x323 JUMPI PUSH2 0x2F4 PUSH2 0xBE6 JUMP JUMPDEST PUSH1 0x1 PUSH0 PUSH1 0x15 PUSH2 0x100 EXP DUP2 SLOAD DUP2 PUSH1 0xFF MUL NOT AND SWAP1 DUP4 PUSH1 0x3 DUP2 GT ISZERO PUSH2 0x319 JUMPI PUSH2 0x318 PUSH2 0x1E7F JUMP JUMPDEST JUMPDEST MUL OR SWAP1 SSTORE POP PUSH2 0x367 JUMP JUMPDEST PUSH1 0x1 PUSH1 0x3 DUP2 GT ISZERO PUSH2 0x337 JUMPI PUSH2 0x336 PUSH2 0x1E7F JUMP JUMPDEST JUMPDEST PUSH0 PUSH1 0x15 SWAP1 SLOAD SWAP1 PUSH2 0x100 EXP SWAP1 DIV PUSH1 0xFF AND PUSH1 0x3 DUP2 GT ISZERO PUSH2 0x358 JUMPI PUSH2 0x357 PUSH2 0x1E7F JUMP JUMPDEST JUMPDEST SUB PUSH2 0x366 JUMPI PUSH2 0x365 PUSH2 0xE43 JUMP JUMPDEST JUMPDEST JUMPDEST PUSH1 0x1 PUSH1 0x3 DUP2 GT ISZERO PUSH2 0x37B JUMPI PUSH2 0x37A PUSH2 0x1E7F JUMP JUMPDEST JUMPDEST PUSH0 PUSH1 0x15 SWAP1 SLOAD SWAP1 PUSH2 0x100 EXP SWAP1 DIV PUSH1 0xFF AND PUSH1 0x3 DUP2 GT ISZERO PUSH2 0x39C JUMPI PUSH2 0x39B PUSH2 0x1E7F JUMP JUMPDEST JUMPDEST SUB PUSH2 0x3BA JUMPI PUSH1 0x1 SLOAD TIMESTAMP PUSH2 0x3AF SWAP2 SWAP1 PUSH2 0x20A6 JUMP JUMPDEST PUSH1 0x2 DUP2 SWAP1 SSTORE POP PUSH2 0x44D JUMP JUMPDEST PUSH1 0x3 DUP1 DUP2 GT ISZERO PUSH2 0x3CD JUMPI PUSH2 0x3CC PUSH2 0x1E7F JUMP JUMPDEST JUMPDEST PUSH0 PUSH1 0x15 SWAP1 SLOAD SWAP1 PUSH2 0x100 EXP SWAP1 DIV PUSH1 0xFF AND PUSH1 0x3 DUP2 GT ISZERO PUSH2 0x3EE JUMPI PUSH2 0x3ED PUSH2 0x1E7F JUMP JUMPDEST JUMPDEST SUB PUSH2 0x408 JUMPI PUSH2 0x3FB PUSH2 0x107B JUMP JUMPDEST PUSH2 0x403 PUSH2 0x1444 JUMP JUMPDEST PUSH2 0x44C JUMP JUMPDEST PUSH1 0x2 PUSH1 0x3 DUP2 GT ISZERO PUSH2 0x41C JUMPI PUSH2 0x41B PUSH2 0x1E7F JUMP JUMPDEST JUMPDEST PUSH0 PUSH1 0x15 SWAP1 SLOAD SWAP1 PUSH2 0x100 EXP SWAP1 DIV PUSH1 0xFF AND PUSH1 0x3 DUP2 GT ISZERO PUSH2 0x43D JUMPI PUSH2 0x43C PUSH2 0x1E7F JUMP JUMPDEST JUMPDEST SUB PUSH2 0x44B JUMPI PUSH2 0x44A PUSH2 0x1444 JUMP JUMPDEST JUMPDEST JUMPDEST JUMPDEST JUMP JUMPDEST PUSH1 0x60 PUSH0 PUSH1 0x4 PUSH0 CALLER PUSH20 0xFFFFFFFFFFFFFFFFFFFFFFFFFFFFFFFFFFFFFFFF AND PUSH20 0xFFFFFFFFFFFFFFFFFFFFFFFFFFFFFFFFFFFFFFFF AND DUP2 MSTORE PUSH1 0x20 ADD SWAP1 DUP2 MSTORE PUSH1 0x20 ADD PUSH0 KECCAK256 DUP1 SLOAD DUP1 PUSH1 0x20 MUL PUSH1 0x20 ADD PUSH1 0x40 MLOAD SWAP1 DUP2 ADD PUSH1 0x40 MSTORE DUP1 SWAP3 SWAP2 SWAP1 DUP2 DUP2 MSTORE PUSH1 0x20 ADD DUP3 DUP1 SLOAD DUP1 ISZERO PUSH2 0x50A JUMPI PUSH1 0x20 MUL DUP3 ADD SWAP2 SWAP1 PUSH0 MSTORE PUSH1 0x20 PUSH0 KECCAK256 SWAP1 PUSH0 SWAP1 JUMPDEST DUP3 DUP3 SWAP1 SLOAD SWAP1 PUSH2 0x100 EXP SWAP1 DIV PUSH1 0xFF AND PUSH1 0xC DUP2 GT ISZERO PUSH2 0x4E5 JUMPI PUSH2 0x4E4 PUSH2 0x1E7F JUMP JUMPDEST JUMPDEST DUP2 MSTORE PUSH1 0x20 ADD SWAP1 PUSH1 0x1 ADD SWAP1 PUSH1 0x20 DUP3 PUSH0 ADD DIV SWAP3 DUP4 ADD SWAP3 PUSH1 0x1 SUB DUP3 MUL SWAP2 POP DUP1 DUP5 GT PUSH2 0x4C5 JUMPI SWAP1 POP JUMPDEST POP POP POP POP POP SWAP1 POP PUSH0 DUP2 MLOAD PUSH8 0xFFFFFFFFFFFFFFFF DUP2 GT ISZERO PUSH2 0x52D JUMPI PUSH2 0x52C PUSH2 0x20D9 JUMP JUMPDEST JUMPDEST PUSH1 0x40 MLOAD SWAP1 DUP1 DUP3 MSTORE DUP1 PUSH1 0x20 MUL PUSH1 0x20 ADD DUP3 ADD PUSH1 0x40 MSTORE DUP1 ISZERO PUSH2 0x55B JUMPI DUP2 PUSH1 0x20 ADD PUSH1 0x20 DUP3 MUL DUP1 CALLDATASIZE DUP4 CALLDATACOPY DUP1 DUP3 ADD SWAP2 POP POP SWAP1 POP JUMPDEST POP SWAP1 POP PUSH0 JUMPDEST DUP3 MLOAD DUP2 LT ISZERO PUSH2 0x5D1 JUMPI PUSH1 0x1 PUSH1 0xFF AND DUP4 DUP3 DUP2 MLOAD DUP2 LT PUSH2 0x581 JUMPI PUSH2 0x580 PUSH2 0x2106 JUMP JUMPDEST JUMPDEST PUSH1 0x20 MUL PUSH1 0x20 ADD ADD MLOAD PUSH1 0xC DUP2 GT ISZERO PUSH2 0x59B JUMPI PUSH2 0x59A PUSH2 0x1E7F JUMP JUMPDEST JUMPDEST PUSH2 0x5A5 SWAP2 SWAP1 PUSH2 0x20A6 JUMP JUMPDEST DUP3 DUP3 DUP2 MLOAD DUP2 LT PUSH2 0x5B8 JUMPI PUSH2 0x5B7 PUSH2 0x2106 JUMP JUMPDEST JUMPDEST PUSH1 0x20 MUL PUSH1 0x20 ADD ADD DUP2 DUP2 MSTORE POP POP DUP1 DUP1 PUSH1 0x1 ADD SWAP2 POP POP PUSH2 0x560 JUMP JUMPDEST POP DUP1 SWAP3 POP POP POP SWAP1 JUMP JUMPDEST PUSH0 DUP1 SLOAD SWAP1 PUSH2 0x100 EXP SWAP1 DIV PUSH20 0xFFFFFFFFFFFFFFFFFFFFFFFFFFFFFFFFFFFFFFFF AND DUP2 JUMP JUMPDEST PUSH0 PUSH1 0x15 SWAP1 SLOAD SWAP1 PUSH2 0x100 EXP SWAP1 DIV PUSH1 0xFF AND DUP2 JUMP JUMPDEST PUSH2 0x619 PUSH1 0x4 PUSH2 0x92D JUMP JUMPDEST CALLER PUSH20 0xFFFFFFFFFFFFFFFFFFFFFFFFFFFFFFFFFFFFFFFF AND PUSH32 0xCBE57BA0262DC3A1CBAF4B18552F05B3AE49736AF8011369B89319B35DC20375 PUSH1 0x40 MLOAD PUSH1 0x40 MLOAD DUP1 SWAP2 SUB SWAP1 LOG2 JUMP JUMPDEST PUSH0 DUP1 SLOAD SWAP1 PUSH2 0x100 EXP SWAP1 DIV PUSH20 0xFFFFFFFFFFFFFFFFFFFFFFFFFFFFFFFFFFFFFFFF AND PUSH20 0xFFFFFFFFFFFFFFFFFFFFFFFFFFFFFFFFFFFFFFFF AND CALLER PUSH20 0xFFFFFFFFFFFFFFFFFFFFFFFFFFFFFFFFFFFFFFFF AND SUB PUSH2 0x6EB JUMPI PUSH1 0x40 MLOAD PUSH32 0x8C379A000000000000000000000000000000000000000000000000000000000 DUP2 MSTORE PUSH1 0x4 ADD PUSH2 0x6E2 SWAP1 PUSH2 0x217D JUMP JUMPDEST PUSH1 0x40 MLOAD DUP1 SWAP2 SUB SWAP1 REVERT JUMPDEST PUSH0 PUSH1 0x3 DUP2 GT ISZERO PUSH2 0x6FE JUMPI PUSH2 0x6FD PUSH2 0x1E7F JUMP JUMPDEST JUMPDEST PUSH0 PUSH1 0x15 SWAP1 SLOAD SWAP1 PUSH2 0x100 EXP SWAP1 DIV PUSH1 0xFF AND PUSH1 0x3 DUP2 GT ISZERO PUSH2 0x71F JUMPI PUSH2 0x71E PUSH2 0x1E7F JUMP JUMPDEST JUMPDEST EQ PUSH2 0x75F JUMPI PUSH1 0x40 MLOAD PUSH32 0x8C379A000000000000000000000000000000000000000000000000000000000 DUP2 MSTORE PUSH1 0x4 ADD PUSH2 0x756 SWAP1 PUSH2 0x21E5 JUMP JUMPDEST PUSH1 0x40 MLOAD DUP1 SWAP2 SUB SWAP1 REVERT JUMPDEST PUSH0 PUSH1 0x4 DUP2 GT ISZERO PUSH2 0x772 JUMPI PUSH2 0x771 PUSH2 0x1E7F JUMP JUMPDEST JUMPDEST PUSH1 0x5 PUSH0 CALLER PUSH20 0xFFFFFFFFFFFFFFFFFFFFFFFFFFFFFFFFFFFFFFFF AND PUSH20 0xFFFFFFFFFFFFFFFFFFFFFFFFFFFFFFFFFFFFFFFF AND DUP2 MSTORE PUSH1 0x20 ADD SWAP1 DUP2 MSTORE PUSH1 0x20 ADD PUSH0 KECCAK256 PUSH0 SWAP1 SLOAD SWAP1 PUSH2 0x100 EXP SWAP1 DIV PUSH1 0xFF AND PUSH1 0x4 DUP2 GT ISZERO PUSH2 0x7CE JUMPI PUSH2 0x7CD PUSH2 0x1E7F JUMP JUMPDEST JUMPDEST EQ PUSH2 0x80E JUMPI PUSH1 0x40 MLOAD PUSH32 0x8C379A000000000000000000000000000000000000000000000000000000000 DUP2 MSTORE PUSH1 0x4 ADD PUSH2 0x805 SWAP1 PUSH2 0x224D JUMP JUMPDEST PUSH1 0x40 MLOAD DUP1 SWAP2 SUB SWAP1 REVERT JUMPDEST PUSH0 PUSH1 0x14 SWAP1 SLOAD SWAP1 PUSH2 0x100 EXP SWAP1 DIV PUSH1 0xFF AND PUSH1 0xFF AND PUSH1 0x3 DUP1 SLOAD SWAP1 POP LT PUSH2 0x866 JUMPI PUSH1 0x40 MLOAD PUSH32 0x8C379A000000000000000000000000000000000000000000000000000000000 DUP2 MSTORE PUSH1 0x4 ADD PUSH2 0x85D SWAP1 PUSH2 0x22DB JUMP JUMPDEST PUSH1 0x40 MLOAD DUP1 SWAP2 SUB SWAP1 REVERT JUMPDEST PUSH1 0x3 CALLER SWAP1 DUP1 PUSH1 0x1 DUP2 SLOAD ADD DUP1 DUP3 SSTORE DUP1 SWAP2 POP POP PUSH1 0x1 SWAP1 SUB SWAP1 PUSH0 MSTORE PUSH1 0x20 PUSH0 KECCAK256 ADD PUSH0 SWAP1 SWAP2 SWAP1 SWAP2 SWAP1 SWAP2 PUSH2 0x100 EXP DUP2 SLOAD DUP2 PUSH20 0xFFFFFFFFFFFFFFFFFFFFFFFFFFFFFFFFFFFFFFFF MUL NOT AND SWAP1 DUP4 PUSH20 0xFFFFFFFFFFFFFFFFFFFFFFFFFFFFFFFFFFFFFFFF AND MUL OR SWAP1 SSTORE POP PUSH1 0x1 PUSH1 0x5 PUSH0 CALLER PUSH20 0xFFFFFFFFFFFFFFFFFFFFFFFFFFFFFFFFFFFFFFFF AND PUSH20 0xFFFFFFFFFFFFFFFFFFFFFFFFFFFFFFFFFFFFFFFF AND DUP2 MSTORE PUSH1 0x20 ADD SWAP1 DUP2 MSTORE PUSH1 0x20 ADD PUSH0 KECCAK256 PUSH0 PUSH2 0x100 EXP DUP2 SLOAD DUP2 PUSH1 0xFF MUL NOT AND SWAP1 DUP4 PUSH1 0x4 DUP2 GT ISZERO PUSH2 0x926 JUMPI PUSH2 0x925 PUSH2 0x1E7F JUMP JUMPDEST JUMPDEST MUL OR SWAP1 SSTORE POP JUMP JUMPDEST PUSH1 0x1 PUSH1 0x4 DUP2 GT ISZERO PUSH2 0x941 JUMPI PUSH2 0x940 PUSH2 0x1E7F JUMP JUMPDEST JUMPDEST PUSH1 0x5 PUSH0 CALLER PUSH20 0xFFFFFFFFFFFFFFFFFFFFFFFFFFFFFFFFFFFFFFFF AND PUSH20 0xFFFFFFFFFFFFFFFFFFFFFFFFFFFFFFFFFFFFFFFF AND DUP2 MSTORE PUSH1 0x20 ADD SWAP1 DUP2 MSTORE PUSH1 0x20 ADD PUSH0 KECCAK256 PUSH0 SWAP1 SLOAD SWAP1 PUSH2 0x100 EXP SWAP1 DIV PUSH1 0xFF AND PUSH1 0x4 DUP2 GT ISZERO PUSH2 0x99D JUMPI PUSH2 0x99C PUSH2 0x1E7F JUMP JUMPDEST JUMPDEST EQ PUSH2 0x9DD JUMPI PUSH1 0x40 MLOAD PUSH32 0x8C379A000000000000000000000000000000000000000000000000000000000 DUP2 MSTORE PUSH1 0x4 ADD PUSH2 0x9D4 SWAP1 PUSH2 0x2369 JUMP JUMPDEST PUSH1 0x40 MLOAD DUP1 SWAP2 SUB SWAP1 REVERT JUMPDEST PUSH1 0x1 PUSH1 0x3 DUP2 GT ISZERO PUSH2 0x9F1 JUMPI PUSH2 0x9F0 PUSH2 0x1E7F JUMP JUMPDEST JUMPDEST PUSH0 PUSH1 0x15 SWAP1 SLOAD SWAP1 PUSH2 0x100 EXP SWAP1 DIV PUSH1 0xFF AND PUSH1 0x3 DUP2 GT ISZERO PUSH2 0xA12 JUMPI PUSH2 0xA11 PUSH2 0x1E7F JUMP JUMPDEST JUMPDEST EQ PUSH2 0xA52 JUMPI PUSH1 0x40 MLOAD PUSH32 0x8C379A000000000000000000000000000000000000000000000000000000000 DUP2 MSTORE PUSH1 0x4 ADD PUSH2 0xA49 SWAP1 PUSH2 0x23F7 JUMP JUMPDEST PUSH1 0x40 MLOAD DUP1 SWAP2 SUB SWAP1 REVERT JUMPDEST PUSH1 0x2 SLOAD TIMESTAMP GT ISZERO PUSH2 0xA97 JUMPI PUSH1 0x40 MLOAD PUSH32 0x8C379A000000000000000000000000000000000000000000000000000000000 DUP2 MSTORE PUSH1 0x4 ADD PUSH2 0xA8E SWAP1 PUSH2 0x2485 JUMP JUMPDEST PUSH1 0x40 MLOAD DUP1 SWAP2 SUB SWAP1 REVERT JUMPDEST DUP1 PUSH1 0x5 PUSH0 CALLER PUSH20 0xFFFFFFFFFFFFFFFFFFFFFFFFFFFFFFFFFFFFFFFF AND PUSH20 0xFFFFFFFFFFFFFFFFFFFFFFFFFFFFFFFFFFFFFFFF AND DUP2 MSTORE PUSH1 0x20 ADD SWAP1 DUP2 MSTORE PUSH1 0x20 ADD PUSH0 KECCAK256 PUSH0 PUSH2 0x100 EXP DUP2 SLOAD DUP2 PUSH1 0xFF MUL NOT AND SWAP1 DUP4 PUSH1 0x4 DUP2 GT ISZERO PUSH2 0xAF6 JUMPI PUSH2 0xAF5 PUSH2 0x1E7F JUMP JUMPDEST JUMPDEST MUL OR SWAP1 SSTORE POP POP JUMP JUMPDEST PUSH0 DUP1 PUSH0 SWAP1 POP JUMPDEST PUSH1 0x3 DUP1 SLOAD SWAP1 POP DUP2 LT ISZERO PUSH2 0xBDD JUMPI PUSH0 PUSH1 0x5 PUSH0 PUSH1 0x3 DUP5 DUP2 SLOAD DUP2 LT PUSH2 0xB29 JUMPI PUSH2 0xB28 PUSH2 0x2106 JUMP JUMPDEST JUMPDEST SWAP1 PUSH0 MSTORE PUSH1 0x20 PUSH0 KECCAK256 ADD PUSH0 SWAP1 SLOAD SWAP1 PUSH2 0x100 EXP SWAP1 DIV PUSH20 0xFFFFFFFFFFFFFFFFFFFFFFFFFFFFFFFFFFFFFFFF AND PUSH20 0xFFFFFFFFFFFFFFFFFFFFFFFFFFFFFFFFFFFFFFFF AND PUSH20 0xFFFFFFFFFFFFFFFFFFFFFFFFFFFFFFFFFFFFFFFF AND DUP2 MSTORE PUSH1 0x20 ADD SWAP1 DUP2 MSTORE PUSH1 0x20 ADD PUSH0 KECCAK256 PUSH0 SWAP1 SLOAD SWAP1 PUSH2 0x100 EXP SWAP1 DIV PUSH1 0xFF AND SWAP1 POP PUSH1 0x1 PUSH1 0x4 DUP2 GT ISZERO PUSH2 0xBAD JUMPI PUSH2 0xBAC PUSH2 0x1E7F JUMP JUMPDEST JUMPDEST DUP2 PUSH1 0x4 DUP2 GT ISZERO PUSH2 0xBC0 JUMPI PUSH2 0xBBF PUSH2 0x1E7F JUMP JUMPDEST JUMPDEST SUB PUSH2 0xBCF JUMPI PUSH0 SWAP3 POP POP POP PUSH2 0xBE3 JUMP JUMPDEST POP DUP1 DUP1 PUSH1 0x1 ADD SWAP2 POP POP PUSH2 0xB04 JUMP JUMPDEST POP PUSH1 0x1 SWAP1 POP JUMPDEST SWAP1 JUMP JUMPDEST PUSH0 JUMPDEST PUSH1 0x3 DUP1 SLOAD SWAP1 POP DUP2 LT ISZERO PUSH2 0xD6C JUMPI PUSH0 PUSH1 0x3 DUP3 DUP2 SLOAD DUP2 LT PUSH2 0xC0A JUMPI PUSH2 0xC09 PUSH2 0x2106 JUMP JUMPDEST JUMPDEST SWAP1 PUSH0 MSTORE PUSH1 0x20 PUSH0 KECCAK256 ADD PUSH0 SWAP1 SLOAD SWAP1 PUSH2 0x100 EXP SWAP1 DIV PUSH20 0xFFFFFFFFFFFFFFFFFFFFFFFFFFFFFFFFFFFFFFFF AND SWAP1 POP PUSH1 0x4 PUSH0 DUP3 PUSH20 0xFFFFFFFFFFFFFFFFFFFFFFFFFFFFFFFFFFFFFFFF AND PUSH20 0xFFFFFFFFFFFFFFFFFFFFFFFFFFFFFFFFFFFFFFFF AND DUP2 MSTORE PUSH1 0x20 ADD SWAP1 DUP2 MSTORE PUSH1 0x20 ADD PUSH0 KECCAK256 PUSH2 0xC7A DUP3 PUSH2 0x15BB JUMP JUMPDEST SWAP1 DUP1 PUSH1 0x1 DUP2 SLOAD ADD DUP1 DUP3 SSTORE DUP1 SWAP2 POP POP PUSH1 0x1 SWAP1 SUB SWAP1 PUSH0 MSTORE PUSH1 0x20 PUSH0 KECCAK256 SWAP1 PUSH1 0x20 SWAP2 DUP3 DUP3 DIV ADD SWAP2 SWAP1 MOD SWAP1 SWAP2 SWAP1 SWAP2 SWAP1 SWAP2 PUSH2 0x100 EXP DUP2 SLOAD DUP2 PUSH1 0xFF MUL NOT AND SWAP1 DUP4 PUSH1 0xC DUP2 GT ISZERO PUSH2 0xCC4 JUMPI PUSH2 0xCC3 PUSH2 0x1E7F JUMP JUMPDEST JUMPDEST MUL OR SWAP1 SSTORE POP PUSH1 0x4 PUSH0 DUP3 PUSH20 0xFFFFFFFFFFFFFFFFFFFFFFFFFFFFFFFFFFFFFFFF AND PUSH20 0xFFFFFFFFFFFFFFFFFFFFFFFFFFFFFFFFFFFFFFFF AND DUP2 MSTORE PUSH1 0x20 ADD SWAP1 DUP2 MSTORE PUSH1 0x20 ADD PUSH0 KECCAK256 PUSH2 0xD0F DUP3 PUSH2 0x15BB JUMP JUMPDEST SWAP1 DUP1 PUSH1 0x1 DUP2 SLOAD ADD DUP1 DUP3 SSTORE DUP1 SWAP2 POP POP PUSH1 0x1 SWAP1 SUB SWAP1 PUSH0 MSTORE PUSH1 0x20 PUSH0 KECCAK256 SWAP1 PUSH1 0x20 SWAP2 DUP3 DUP3 DIV ADD SWAP2 SWAP1 MOD SWAP1 SWAP2 SWAP1 SWAP2 SWAP1 SWAP2 PUSH2 0x100 EXP DUP2 SLOAD DUP2 PUSH1 0xFF MUL NOT AND SWAP1 DUP4 PUSH1 0xC DUP2 GT ISZERO PUSH2 0xD59 JUMPI PUSH2 0xD58 PUSH2 0x1E7F JUMP JUMPDEST JUMPDEST MUL OR SWAP1 SSTORE POP POP DUP1 DUP1 PUSH1 0x1 ADD SWAP2 POP POP PUSH2 0xBE8 JUMP JUMPDEST POP PUSH1 0x4 PUSH0 DUP1 PUSH0 SWAP1 SLOAD SWAP1 PUSH2 0x100 EXP SWAP1 DIV PUSH20 0xFFFFFFFFFFFFFFFFFFFFFFFFFFFFFFFFFFFFFFFF AND PUSH20 0xFFFFFFFFFFFFFFFFFFFFFFFFFFFFFFFFFFFFFFFF AND PUSH20 0xFFFFFFFFFFFFFFFFFFFFFFFFFFFFFFFFFFFFFFFF AND DUP2 MSTORE PUSH1 0x20 ADD SWAP1 DUP2 MSTORE PUSH1 0x20 ADD PUSH0 KECCAK256 PUSH2 0xDF2 PUSH0 DUP1 SLOAD SWAP1 PUSH2 0x100 EXP SWAP1 DIV PUSH20 0xFFFFFFFFFFFFFFFFFFFFFFFFFFFFFFFFFFFFFFFF AND PUSH2 0x15BB JUMP JUMPDEST SWAP1 DUP1 PUSH1 0x1 DUP2 SLOAD ADD DUP1 DUP3 SSTORE DUP1 SWAP2 POP POP PUSH1 0x1 SWAP1 SUB SWAP1 PUSH0 MSTORE PUSH1 0x20 PUSH0 KECCAK256 SWAP1 PUSH1 0x20 SWAP2 DUP3 DUP3 DIV ADD SWAP2 SWAP1 MOD SWAP1 SWAP2 SWAP1 SWAP2 SWAP1 SWAP2 PUSH2 0x100 EXP DUP2 SLOAD DUP2 PUSH1 0xFF MUL NOT AND SWAP1 DUP4 PUSH1 0xC DUP2 GT ISZERO PUSH2 0xE3C JUMPI PUSH2 0xE3B PUSH2 0x1E7F JUMP JUMPDEST JUMPDEST MUL OR SWAP1 SSTORE POP JUMP JUMPDEST PUSH0 DUP1 PUSH0 JUMPDEST PUSH1 0x3 DUP1 SLOAD SWAP1 POP DUP2 LT ISZERO PUSH2 0x106C JUMPI PUSH0 PUSH1 0x3 DUP3 DUP2 SLOAD DUP2 LT PUSH2 0xE69 JUMPI PUSH2 0xE68 PUSH2 0x2106 JUMP JUMPDEST JUMPDEST SWAP1 PUSH0 MSTORE PUSH1 0x20 PUSH0 KECCAK256 ADD PUSH0 SWAP1 SLOAD SWAP1 PUSH2 0x100 EXP SWAP1 DIV PUSH20 0xFFFFFFFFFFFFFFFFFFFFFFFFFFFFFFFFFFFFFFFF AND SWAP1 POP PUSH0 PUSH1 0x5 PUSH0 DUP4 PUSH20 0xFFFFFFFFFFFFFFFFFFFFFFFFFFFFFFFFFFFFFFFF AND PUSH20 0xFFFFFFFFFFFFFFFFFFFFFFFFFFFFFFFFFFFFFFFF AND DUP2 MSTORE PUSH1 0x20 ADD SWAP1 DUP2 MSTORE PUSH1 0x20 ADD PUSH0 KECCAK256 PUSH0 SWAP1 SLOAD SWAP1 PUSH2 0x100 EXP SWAP1 DIV PUSH1 0xFF AND SWAP1 POP PUSH1 0x3 PUSH1 0x4 DUP2 GT ISZERO PUSH2 0xEF4 JUMPI PUSH2 0xEF3 PUSH2 0x1E7F JUMP JUMPDEST JUMPDEST DUP2 PUSH1 0x4 DUP2 GT ISZERO PUSH2 0xF07 JUMPI PUSH2 0xF06 PUSH2 0x1E7F JUMP JUMPDEST JUMPDEST SUB PUSH2 0xF1A JUMPI PUSH2 0xF15 DUP3 PUSH2 0x15ED JUMP JUMPDEST PUSH2 0xF51 JUMP JUMPDEST PUSH1 0x1 PUSH1 0x4 DUP2 GT ISZERO PUSH2 0xF2E JUMPI PUSH2 0xF2D PUSH2 0x1E7F JUMP JUMPDEST JUMPDEST DUP2 PUSH1 0x4 DUP2 GT ISZERO PUSH2 0xF41 JUMPI PUSH2 0xF40 PUSH2 0x1E7F JUMP JUMPDEST JUMPDEST SUB PUSH2 0xF50 JUMPI PUSH2 0xF4F DUP3 PUSH2 0x1868 JUMP JUMPDEST JUMPDEST JUMPDEST PUSH1 0x4 DUP1 DUP2 GT ISZERO PUSH2 0xF64 JUMPI PUSH2 0xF63 PUSH2 0x1E7F JUMP JUMPDEST JUMPDEST PUSH1 0x5 PUSH0 DUP5 PUSH20 0xFFFFFFFFFFFFFFFFFFFFFFFFFFFFFFFFFFFFFFFF AND PUSH20 0xFFFFFFFFFFFFFFFFFFFFFFFFFFFFFFFFFFFFFFFF AND DUP2 MSTORE PUSH1 0x20 ADD SWAP1 DUP2 MSTORE PUSH1 0x20 ADD PUSH0 KECCAK256 PUSH0 SWAP1 SLOAD SWAP1 PUSH2 0x100 EXP SWAP1 DIV PUSH1 0xFF AND PUSH1 0x4 DUP2 GT ISZERO PUSH2 0xFC0 JUMPI PUSH2 0xFBF PUSH2 0x1E7F JUMP JUMPDEST JUMPDEST SUB PUSH2 0xFD8 JUMPI DUP4 DUP1 PUSH2 0xFD0 SWAP1 PUSH2 0x24A3 JUMP JUMPDEST SWAP5 POP POP PUSH2 0x105D JUMP JUMPDEST PUSH1 0x2 PUSH1 0x4 DUP2 GT ISZERO PUSH2 0xFEC JUMPI PUSH2 0xFEB PUSH2 0x1E7F JUMP JUMPDEST JUMPDEST PUSH1 0x5 PUSH0 DUP5 PUSH20 0xFFFFFFFFFFFFFFFFFFFFFFFFFFFFFFFFFFFFFFFF AND PUSH20 0xFFFFFFFFFFFFFFFFFFFFFFFFFFFFFFFFFFFFFFFF AND DUP2 MSTORE PUSH1 0x20 ADD SWAP1 DUP2 MSTORE PUSH1 0x20 ADD PUSH0 KECCAK256 PUSH0 SWAP1 SLOAD SWAP1 PUSH2 0x100 EXP SWAP1 DIV PUSH1 0xFF AND PUSH1 0x4 DUP2 GT ISZERO PUSH2 0x1048 JUMPI PUSH2 0x1047 PUSH2 0x1E7F JUMP JUMPDEST JUMPDEST SUB PUSH2 0x105C JUMPI DUP5 DUP1 PUSH2 0x1058 SWAP1 PUSH2 0x24A3 JUMP JUMPDEST SWAP6 POP POP JUMPDEST JUMPDEST POP POP DUP1 DUP1 PUSH1 0x1 ADD SWAP2 POP POP PUSH2 0xE47 JUMP JUMPDEST POP PUSH2 0x1077 DUP3 DUP3 PUSH2 0x1913 JUMP JUMPDEST POP POP JUMP JUMPDEST PUSH1 0x1 PUSH1 0x3 DUP2 GT ISZERO PUSH2 0x108F JUMPI PUSH2 0x108E PUSH2 0x1E7F JUMP JUMPDEST JUMPDEST PUSH0 PUSH1 0x15 SWAP1 SLOAD SWAP1 PUSH2 0x100 EXP SWAP1 DIV PUSH1 0xFF AND PUSH1 0x3 DUP2 GT ISZERO PUSH2 0x10B0 JUMPI PUSH2 0x10AF PUSH2 0x1E7F JUMP JUMPDEST JUMPDEST SUB PUSH2 0x1442 JUMPI JUMPDEST PUSH1 0x11 PUSH1 0xFF AND PUSH2 0x11A0 PUSH1 0x4 PUSH0 DUP1 PUSH0 SWAP1 SLOAD SWAP1 PUSH2 0x100 EXP SWAP1 DIV PUSH20 0xFFFFFFFFFFFFFFFFFFFFFFFFFFFFFFFFFFFFFFFF AND PUSH20 0xFFFFFFFFFFFFFFFFFFFFFFFFFFFFFFFFFFFFFFFF AND PUSH20 0xFFFFFFFFFFFFFFFFFFFFFFFFFFFFFFFFFFFFFFFF AND DUP2 MSTORE PUSH1 0x20 ADD SWAP1 DUP2 MSTORE PUSH1 0x20 ADD PUSH0 KECCAK256 DUP1 SLOAD DUP1 PUSH1 0x20 MUL PUSH1 0x20 ADD PUSH1 0x40 MLOAD SWAP1 DUP2 ADD PUSH1 0x40 MSTORE DUP1 SWAP3 SWAP2 SWAP1 DUP2 DUP2 MSTORE PUSH1 0x20 ADD DUP3 DUP1 SLOAD DUP1 ISZERO PUSH2 0x1196 JUMPI PUSH1 0x20 MUL DUP3 ADD SWAP2 SWAP1 PUSH0 MSTORE PUSH1 0x20 PUSH0 KECCAK256 SWAP1 PUSH0 SWAP1 JUMPDEST DUP3 DUP3 SWAP1 SLOAD SWAP1 PUSH2 0x100 EXP SWAP1 DIV PUSH1 0xFF AND PUSH1 0xC DUP2 GT ISZERO PUSH2 0x1171 JUMPI PUSH2 0x1170 PUSH2 0x1E7F JUMP JUMPDEST JUMPDEST DUP2 MSTORE PUSH1 0x20 ADD SWAP1 PUSH1 0x1 ADD SWAP1 PUSH1 0x20 DUP3 PUSH0 ADD DIV SWAP3 DUP4 ADD SWAP3 PUSH1 0x1 SUB DUP3 MUL SWAP2 POP DUP1 DUP5 GT PUSH2 0x1151 JUMPI SWAP1 POP JUMPDEST POP POP POP POP POP PUSH2 0x1995 JUMP JUMPDEST LT ISZERO PUSH2 0x127F JUMPI PUSH1 0x4 PUSH0 DUP1 PUSH0 SWAP1 SLOAD SWAP1 PUSH2 0x100 EXP SWAP1 DIV PUSH20 0xFFFFFFFFFFFFFFFFFFFFFFFFFFFFFFFFFFFFFFFF AND PUSH20 0xFFFFFFFFFFFFFFFFFFFFFFFFFFFFFFFFFFFFFFFF AND PUSH20 0xFFFFFFFFFFFFFFFFFFFFFFFFFFFFFFFFFFFFFFFF AND DUP2 MSTORE PUSH1 0x20 ADD SWAP1 DUP2 MSTORE PUSH1 0x20 ADD PUSH0 KECCAK256 PUSH2 0x122B PUSH0 DUP1 SLOAD SWAP1 PUSH2 0x100 EXP SWAP1 DIV PUSH20 0xFFFFFFFFFFFFFFFFFFFFFFFFFFFFFFFFFFFFFFFF AND PUSH2 0x15BB JUMP JUMPDEST SWAP1 DUP1 PUSH1 0x1 DUP2 SLOAD ADD DUP1 DUP3 SSTORE DUP1 SWAP2 POP POP PUSH1 0x1 SWAP1 SUB SWAP1 PUSH0 MSTORE PUSH1 0x20 PUSH0 KECCAK256 SWAP1 PUSH1 0x20 SWAP2 DUP3 DUP3 DIV ADD SWAP2 SWAP1 MOD SWAP1 SWAP2 SWAP1 SWAP2 SWAP1 SWAP2 PUSH2 0x100 EXP DUP2 SLOAD DUP2 PUSH1 0xFF MUL NOT AND SWAP1 DUP4 PUSH1 0xC DUP2 GT ISZERO PUSH2 0x1275 JUMPI PUSH2 0x1274 PUSH2 0x1E7F JUMP JUMPDEST JUMPDEST MUL OR SWAP1 SSTORE POP PUSH2 0x10B6 JUMP JUMPDEST PUSH1 0x15 PUSH1 0xFF AND PUSH2 0x1369 PUSH1 0x4 PUSH0 DUP1 PUSH0 SWAP1 SLOAD SWAP1 PUSH2 0x100 EXP SWAP1 DIV PUSH20 0xFFFFFFFFFFFFFFFFFFFFFFFFFFFFFFFFFFFFFFFF AND PUSH20 0xFFFFFFFFFFFFFFFFFFFFFFFFFFFFFFFFFFFFFFFF AND PUSH20 0xFFFFFFFFFFFFFFFFFFFFFFFFFFFFFFFFFFFFFFFF AND DUP2 MSTORE PUSH1 0x20 ADD SWAP1 DUP2 MSTORE PUSH1 0x20 ADD PUSH0 KECCAK256 DUP1 SLOAD DUP1 PUSH1 0x20 MUL PUSH1 0x20 ADD PUSH1 0x40 MLOAD SWAP1 DUP2 ADD PUSH1 0x40 MSTORE DUP1 SWAP3 SWAP2 SWAP1 DUP2 DUP2 MSTORE PUSH1 0x20 ADD DUP3 DUP1 SLOAD DUP1 ISZERO PUSH2 0x135F JUMPI PUSH1 0x20 MUL DUP3 ADD SWAP2 SWAP1 PUSH0 MSTORE PUSH1 0x20 PUSH0 KECCAK256 SWAP1 PUSH0 SWAP1 JUMPDEST DUP3 DUP3 SWAP1 SLOAD SWAP1 PUSH2 0x100 EXP SWAP1 DIV PUSH1 0xFF AND PUSH1 0xC DUP2 GT ISZERO PUSH2 0x133A JUMPI PUSH2 0x1339 PUSH2 0x1E7F JUMP JUMPDEST JUMPDEST DUP2 MSTORE PUSH1 0x20 ADD SWAP1 PUSH1 0x1 ADD SWAP1 PUSH1 0x20 DUP3 PUSH0 ADD DIV SWAP3 DUP4 ADD SWAP3 PUSH1 0x1 SUB DUP3 MUL SWAP2 POP DUP1 DUP5 GT PUSH2 0x131A JUMPI SWAP1 POP JUMPDEST POP POP POP POP POP PUSH2 0x1995 JUMP JUMPDEST GT ISZERO PUSH2 0x13DE JUMPI PUSH2 0x1377 PUSH2 0x1AAA JUMP JUMPDEST PUSH0 DUP1 SLOAD SWAP1 PUSH2 0x100 EXP SWAP1 DIV PUSH20 0xFFFFFFFFFFFFFFFFFFFFFFFFFFFFFFFFFFFFFFFF AND PUSH20 0xFFFFFFFFFFFFFFFFFFFFFFFFFFFFFFFFFFFFFFFF AND PUSH32 0xFD11B87F2AF9B86645A7A933E90E504D91320EAF8BD112573A23A3CA82D56C5E PUSH1 0x40 MLOAD PUSH1 0x40 MLOAD DUP1 SWAP2 SUB SWAP1 LOG2 PUSH2 0x1441 JUMP JUMPDEST PUSH0 DUP1 SLOAD SWAP1 PUSH2 0x100 EXP SWAP1 DIV PUSH20 0xFFFFFFFFFFFFFFFFFFFFFFFFFFFFFFFFFFFFFFFF AND PUSH20 0xFFFFFFFFFFFFFFFFFFFFFFFFFFFFFFFFFFFFFFFF AND PUSH32 0xC94E26BC371C19185B9E577EF339D2A5BCA910D48092CBB160550B311DDD8D98 PUSH1 0x40 MLOAD PUSH1 0x40 MLOAD DUP1 SWAP2 SUB SWAP1 LOG2 JUMPDEST JUMPDEST JUMP JUMPDEST PUSH0 DUP1 PUSH1 0x15 PUSH2 0x100 EXP DUP2 SLOAD DUP2 PUSH1 0xFF MUL NOT AND SWAP1 DUP4 PUSH1 0x3 DUP2 GT ISZERO PUSH2 0x1468 JUMPI PUSH2 0x1467 PUSH2 0x1E7F JUMP JUMPDEST JUMPDEST MUL OR SWAP1 SSTORE POP PUSH0 JUMPDEST PUSH1 0x3 DUP1 SLOAD SWAP1 POP DUP2 LT ISZERO PUSH2 0x15AB JUMPI PUSH1 0x4 PUSH0 PUSH1 0x3 DUP4 DUP2 SLOAD DUP2 LT PUSH2 0x1493 JUMPI PUSH2 0x1492 PUSH2 0x2106 JUMP JUMPDEST JUMPDEST SWAP1 PUSH0 MSTORE PUSH1 0x20 PUSH0 KECCAK256 ADD PUSH0 SWAP1 SLOAD SWAP1 PUSH2 0x100 EXP SWAP1 DIV PUSH20 0xFFFFFFFFFFFFFFFFFFFFFFFFFFFFFFFFFFFFFFFF AND PUSH20 0xFFFFFFFFFFFFFFFFFFFFFFFFFFFFFFFFFFFFFFFF AND PUSH20 0xFFFFFFFFFFFFFFFFFFFFFFFFFFFFFFFFFFFFFFFF AND DUP2 MSTORE PUSH1 0x20 ADD SWAP1 DUP2 MSTORE PUSH1 0x20 ADD PUSH0 KECCAK256 PUSH0 PUSH2 0x14FF SWAP2 SWAP1 PUSH2 0x1CB5 JUMP JUMPDEST PUSH0 PUSH1 0x5 PUSH0 PUSH1 0x3 DUP5 DUP2 SLOAD DUP2 LT PUSH2 0x1517 JUMPI PUSH2 0x1516 PUSH2 0x2106 JUMP JUMPDEST JUMPDEST SWAP1 PUSH0 MSTORE PUSH1 0x20 PUSH0 KECCAK256 ADD PUSH0 SWAP1 SLOAD SWAP1 PUSH2 0x100 EXP SWAP1 DIV PUSH20 0xFFFFFFFFFFFFFFFFFFFFFFFFFFFFFFFFFFFFFFFF AND PUSH20 0xFFFFFFFFFFFFFFFFFFFFFFFFFFFFFFFFFFFFFFFF AND PUSH20 0xFFFFFFFFFFFFFFFFFFFFFFFFFFFFFFFFFFFFFFFF AND DUP2 MSTORE PUSH1 0x20 ADD SWAP1 DUP2 MSTORE PUSH1 0x20 ADD PUSH0 KECCAK256 PUSH0 PUSH2 0x100 EXP DUP2 SLOAD DUP2 PUSH1 0xFF MUL NOT AND SWAP1 DUP4 PUSH1 0x4 DUP2 GT ISZERO PUSH2 0x1599 JUMPI PUSH2 0x1598 PUSH2 0x1E7F JUMP JUMPDEST JUMPDEST MUL OR SWAP1 SSTORE POP DUP1 DUP1 PUSH1 0x1 ADD SWAP2 POP POP PUSH2 0x146F JUMP JUMPDEST POP PUSH1 0x3 PUSH0 PUSH2 0x15B9 SWAP2 SWAP1 PUSH2 0x1CDA JUMP JUMPDEST JUMP JUMPDEST PUSH0 PUSH1 0xD PUSH1 0xFF AND PUSH2 0x15CA DUP4 PUSH2 0x1BF7 JUMP JUMPDEST PUSH2 0x15D4 SWAP2 SWAP1 PUSH2 0x2517 JUMP JUMPDEST PUSH1 0xC DUP2 GT ISZERO PUSH2 0x15E6 JUMPI PUSH2 0x15E5 PUSH2 0x1E7F JUMP JUMPDEST JUMPDEST SWAP1 POP SWAP2 SWAP1 POP JUMP JUMPDEST PUSH1 0x4 PUSH0 DUP3 PUSH20 0xFFFFFFFFFFFFFFFFFFFFFFFFFFFFFFFFFFFFFFFF AND PUSH20 0xFFFFFFFFFFFFFFFFFFFFFFFFFFFFFFFFFFFFFFFF AND DUP2 MSTORE PUSH1 0x20 ADD SWAP1 DUP2 MSTORE PUSH1 0x20 ADD PUSH0 KECCAK256 PUSH2 0x1633 DUP3 PUSH2 0x15BB JUMP JUMPDEST SWAP1 DUP1 PUSH1 0x1 DUP2 SLOAD ADD DUP1 DUP3 SSTORE DUP1 SWAP2 POP POP PUSH1 0x1 SWAP1 SUB SWAP1 PUSH0 MSTORE PUSH1 0x20 PUSH0 KECCAK256 SWAP1 PUSH1 0x20 SWAP2 DUP3 DUP3 DIV ADD SWAP2 SWAP1 MOD SWAP1 SWAP2 SWAP1 SWAP2 SWAP1 SWAP2 PUSH2 0x100 EXP DUP2 SLOAD DUP2 PUSH1 0xFF MUL NOT AND SWAP1 DUP4 PUSH1 0xC DUP2 GT ISZERO PUSH2 0x167D JUMPI PUSH2 0x167C PUSH2 0x1E7F JUMP JUMPDEST JUMPDEST MUL OR SWAP1 SSTORE POP PUSH1 0x15 PUSH1 0xFF AND PUSH2 0x174C PUSH1 0x4 PUSH0 DUP5 PUSH20 0xFFFFFFFFFFFFFFFFFFFFFFFFFFFFFFFFFFFFFFFF AND PUSH20 0xFFFFFFFFFFFFFFFFFFFFFFFFFFFFFFFFFFFFFFFF AND DUP2 MSTORE PUSH1 0x20 ADD SWAP1 DUP2 MSTORE PUSH1 0x20 ADD PUSH0 KECCAK256 DUP1 SLOAD DUP1 PUSH1 0x20 MUL PUSH1 0x20 ADD PUSH1 0x40 MLOAD SWAP1 DUP2 ADD PUSH1 0x40 MSTORE DUP1 SWAP3 SWAP2 SWAP1 DUP2 DUP2 MSTORE PUSH1 0x20 ADD DUP3 DUP1 SLOAD DUP1 ISZERO PUSH2 0x1742 JUMPI PUSH1 0x20 MUL DUP3 ADD SWAP2 SWAP1 PUSH0 MSTORE PUSH1 0x20 PUSH0 KECCAK256 SWAP1 PUSH0 SWAP1 JUMPDEST DUP3 DUP3 SWAP1 SLOAD SWAP1 PUSH2 0x100 EXP SWAP1 DIV PUSH1 0xFF AND PUSH1 0xC DUP2 GT ISZERO PUSH2 0x171D JUMPI PUSH2 0x171C PUSH2 0x1E7F JUMP JUMPDEST JUMPDEST DUP2 MSTORE PUSH1 0x20 ADD SWAP1 PUSH1 0x1 ADD SWAP1 PUSH1 0x20 DUP3 PUSH0 ADD DIV SWAP3 DUP4 ADD SWAP3 PUSH1 0x1 SUB DUP3 MUL SWAP2 POP DUP1 DUP5 GT PUSH2 0x16FD JUMPI SWAP1 POP JUMPDEST POP POP POP POP POP PUSH2 0x1995 JUMP JUMPDEST GT ISZERO PUSH2 0x17FF JUMPI DUP1 PUSH20 0xFFFFFFFFFFFFFFFFFFFFFFFFFFFFFFFFFFFFFFFF AND PUSH32 0xFD11B87F2AF9B86645A7A933E90E504D91320EAF8BD112573A23A3CA82D56C5E PUSH1 0x40 MLOAD PUSH1 0x40 MLOAD DUP1 SWAP2 SUB SWAP1 LOG2 PUSH1 0x2 PUSH1 0x5 PUSH0 DUP4 PUSH20 0xFFFFFFFFFFFFFFFFFFFFFFFFFFFFFFFFFFFFFFFF AND PUSH20 0xFFFFFFFFFFFFFFFFFFFFFFFFFFFFFFFFFFFFFFFF AND DUP2 MSTORE PUSH1 0x20 ADD SWAP1 DUP2 MSTORE PUSH1 0x20 ADD PUSH0 KECCAK256 PUSH0 PUSH2 0x100 EXP DUP2 SLOAD DUP2 PUSH1 0xFF MUL NOT AND SWAP1 DUP4 PUSH1 0x4 DUP2 GT ISZERO PUSH2 0x17F5 JUMPI PUSH2 0x17F4 PUSH2 0x1E7F JUMP JUMPDEST JUMPDEST MUL OR SWAP1 SSTORE POP PUSH2 0x1865 JUMP JUMPDEST PUSH1 0x1 PUSH1 0x5 PUSH0 DUP4 PUSH20 0xFFFFFFFFFFFFFFFFFFFFFFFFFFFFFFFFFFFFFFFF AND PUSH20 0xFFFFFFFFFFFFFFFFFFFFFFFFFFFFFFFFFFFFFFFF AND DUP2 MSTORE PUSH1 0x20 ADD SWAP1 DUP2 MSTORE PUSH1 0x20 ADD PUSH0 KECCAK256 PUSH0 PUSH2 0x100 EXP DUP2 SLOAD DUP2 PUSH1 0xFF MUL NOT AND SWAP1 DUP4 PUSH1 0x4 DUP2 GT ISZERO PUSH2 0x185F JUMPI PUSH2 0x185E PUSH2 0x1E7F JUMP JUMPDEST JUMPDEST MUL OR SWAP1 SSTORE POP JUMPDEST POP JUMP JUMPDEST DUP1 PUSH20 0xFFFFFFFFFFFFFFFFFFFFFFFFFFFFFFFFFFFFFFFF AND PUSH32 0xCBE57BA0262DC3A1CBAF4B18552F05B3AE49736AF8011369B89319B35DC20375 PUSH1 0x40 MLOAD PUSH1 0x40 MLOAD DUP1 SWAP2 SUB SWAP1 LOG2 PUSH1 0x4 PUSH1 0x5 PUSH0 DUP4 PUSH20 0xFFFFFFFFFFFFFFFFFFFFFFFFFFFFFFFFFFFFFFFF AND PUSH20 0xFFFFFFFFFFFFFFFFFFFFFFFFFFFFFFFFFFFFFFFF AND DUP2 MSTORE PUSH1 0x20 ADD SWAP1 DUP2 MSTORE PUSH1 0x20 ADD PUSH0 KECCAK256 PUSH0 PUSH2 0x100 EXP DUP2 SLOAD DUP2 PUSH1 0xFF MUL NOT AND SWAP1 DUP4 PUSH1 0x4 DUP2 GT ISZERO PUSH2 0x190B JUMPI PUSH2 0x190A PUSH2 0x1E7F JUMP JUMPDEST JUMPDEST MUL OR SWAP1 SSTORE POP POP JUMP JUMPDEST PUSH1 0x3 DUP1 SLOAD SWAP1 POP DUP3 SUB PUSH2 0x194E JUMPI PUSH1 0x2 PUSH0 PUSH1 0x15 PUSH2 0x100 EXP DUP2 SLOAD DUP2 PUSH1 0xFF MUL NOT AND SWAP1 DUP4 PUSH1 0x3 DUP2 GT ISZERO PUSH2 0x1944 JUMPI PUSH2 0x1943 PUSH2 0x1E7F JUMP JUMPDEST JUMPDEST MUL OR SWAP1 SSTORE POP PUSH2 0x1991 JUMP JUMPDEST PUSH1 0x3 DUP1 SLOAD SWAP1 POP DUP2 DUP4 PUSH2 0x1960 SWAP2 SWAP1 PUSH2 0x20A6 JUMP JUMPDEST SUB PUSH2 0x1990 JUMPI PUSH1 0x3 PUSH0 PUSH1 0x15 PUSH2 0x100 EXP DUP2 SLOAD DUP2 PUSH1 0xFF MUL NOT AND SWAP1 DUP4 PUSH1 0x3 DUP2 GT ISZERO PUSH2 0x198A JUMPI PUSH2 0x1989 PUSH2 0x1E7F JUMP JUMPDEST JUMPDEST MUL OR SWAP1 SSTORE POP JUMPDEST JUMPDEST POP POP JUMP JUMPDEST PUSH0 DUP1 PUSH0 SWAP1 POP PUSH0 JUMPDEST DUP4 MLOAD DUP2 LT ISZERO PUSH2 0x1A5C JUMPI PUSH2 0x19EE PUSH1 0x1 PUSH1 0xFF AND DUP6 DUP4 DUP2 MLOAD DUP2 LT PUSH2 0x19C0 JUMPI PUSH2 0x19BF PUSH2 0x2106 JUMP JUMPDEST JUMPDEST PUSH1 0x20 MUL PUSH1 0x20 ADD ADD MLOAD PUSH1 0xC DUP2 GT ISZERO PUSH2 0x19DA JUMPI PUSH2 0x19D9 PUSH2 0x1E7F JUMP JUMPDEST JUMPDEST PUSH2 0x19E4 SWAP2 SWAP1 PUSH2 0x20A6 JUMP JUMPDEST PUSH1 0xA PUSH1 0xFF AND PUSH2 0x1C7B JUMP JUMPDEST DUP4 PUSH2 0x19F9 SWAP2 SWAP1 PUSH2 0x20A6 JUMP JUMPDEST SWAP3 POP PUSH0 PUSH1 0xC DUP2 GT ISZERO PUSH2 0x1A0E JUMPI PUSH2 0x1A0D PUSH2 0x1E7F JUMP JUMPDEST JUMPDEST DUP5 DUP3 DUP2 MLOAD DUP2 LT PUSH2 0x1A21 JUMPI PUSH2 0x1A20 PUSH2 0x2106 JUMP JUMPDEST JUMPDEST PUSH1 0x20 MUL PUSH1 0x20 ADD ADD MLOAD PUSH1 0xC DUP2 GT ISZERO PUSH2 0x1A3B JUMPI PUSH2 0x1A3A PUSH2 0x1E7F JUMP JUMPDEST JUMPDEST SUB PUSH2 0x1A4F JUMPI DUP2 DUP1 PUSH2 0x1A4B SWAP1 PUSH2 0x24A3 JUMP JUMPDEST SWAP3 POP POP JUMPDEST DUP1 DUP1 PUSH1 0x1 ADD SWAP2 POP POP PUSH2 0x199C JUMP JUMPDEST POP JUMPDEST PUSH0 DUP2 GT DUP1 ISZERO PUSH2 0x1A7D JUMPI POP PUSH1 0x15 PUSH1 0xFF AND PUSH1 0xA DUP4 PUSH2 0x1A7A SWAP2 SWAP1 PUSH2 0x20A6 JUMP JUMPDEST GT ISZERO JUMPDEST ISZERO PUSH2 0x1AA4 JUMPI PUSH1 0xA DUP3 PUSH2 0x1A8F SWAP2 SWAP1 PUSH2 0x20A6 JUMP JUMPDEST SWAP2 POP DUP1 DUP1 PUSH2 0x1A9C SWAP1 PUSH2 0x2547 JUMP JUMPDEST SWAP2 POP POP PUSH2 0x1A5E JUMP JUMPDEST POP SWAP2 SWAP1 POP JUMP JUMPDEST PUSH0 JUMPDEST PUSH1 0x3 DUP1 SLOAD SWAP1 POP DUP2 LT ISZERO PUSH2 0x1BF4 JUMPI PUSH1 0x4 DUP1 DUP2 GT ISZERO PUSH2 0x1ACC JUMPI PUSH2 0x1ACB PUSH2 0x1E7F JUMP JUMPDEST JUMPDEST PUSH1 0x5 PUSH0 PUSH1 0x3 DUP5 DUP2 SLOAD DUP2 LT PUSH2 0x1AE3 JUMPI PUSH2 0x1AE2 PUSH2 0x2106 JUMP JUMPDEST JUMPDEST SWAP1 PUSH0 MSTORE PUSH1 0x20 PUSH0 KECCAK256 ADD PUSH0 SWAP1 SLOAD SWAP1 PUSH2 0x100 EXP SWAP1 DIV PUSH20 0xFFFFFFFFFFFFFFFFFFFFFFFFFFFFFFFFFFFFFFFF AND PUSH20 0xFFFFFFFFFFFFFFFFFFFFFFFFFFFFFFFFFFFFFFFF AND PUSH20 0xFFFFFFFFFFFFFFFFFFFFFFFFFFFFFFFFFFFFFFFF AND DUP2 MSTORE PUSH1 0x20 ADD SWAP1 DUP2 MSTORE PUSH1 0x20 ADD PUSH0 KECCAK256 PUSH0 SWAP1 SLOAD SWAP1 PUSH2 0x100 EXP SWAP1 DIV PUSH1 0xFF AND PUSH1 0x4 DUP2 GT ISZERO PUSH2 0x1B63 JUMPI PUSH2 0x1B62 PUSH2 0x1E7F JUMP JUMPDEST JUMPDEST SUB PUSH2 0x1BE7 JUMPI PUSH1 0x3 DUP2 DUP2 SLOAD DUP2 LT PUSH2 0x1B7C JUMPI PUSH2 0x1B7B PUSH2 0x2106 JUMP JUMPDEST JUMPDEST SWAP1 PUSH0 MSTORE PUSH1 0x20 PUSH0 KECCAK256 ADD PUSH0 SWAP1 SLOAD SWAP1 PUSH2 0x100 EXP SWAP1 DIV PUSH20 0xFFFFFFFFFFFFFFFFFFFFFFFFFFFFFFFFFFFFFFFF AND PUSH20 0xFFFFFFFFFFFFFFFFFFFFFFFFFFFFFFFFFFFFFFFF AND PUSH32 0xC94E26BC371C19185B9E577EF339D2A5BCA910D48092CBB160550B311DDD8D98 PUSH1 0x40 MLOAD PUSH1 0x40 MLOAD DUP1 SWAP2 SUB SWAP1 LOG2 JUMPDEST DUP1 DUP1 PUSH1 0x1 ADD SWAP2 POP POP PUSH2 0x1AAC JUMP JUMPDEST POP JUMP JUMPDEST PUSH0 DUP2 TIMESTAMP NUMBER PREVRANDAO PUSH1 0x1 NUMBER PUSH2 0x1C09 SWAP2 SWAP1 PUSH2 0x256E JUMP JUMPDEST BLOCKHASH PUSH1 0x4 PUSH0 DUP9 PUSH20 0xFFFFFFFFFFFFFFFFFFFFFFFFFFFFFFFFFFFFFFFF AND PUSH20 0xFFFFFFFFFFFFFFFFFFFFFFFFFFFFFFFFFFFFFFFF AND DUP2 MSTORE PUSH1 0x20 ADD SWAP1 DUP2 MSTORE PUSH1 0x20 ADD PUSH0 KECCAK256 PUSH1 0x40 MLOAD PUSH1 0x20 ADD PUSH2 0x1C5C SWAP7 SWAP6 SWAP5 SWAP4 SWAP3 SWAP2 SWAP1 PUSH2 0x338A JUMP JUMPDEST PUSH1 0x40 MLOAD PUSH1 0x20 DUP2 DUP4 SUB SUB DUP2 MSTORE SWAP1 PUSH1 0x40 MSTORE DUP1 MLOAD SWAP1 PUSH1 0x20 ADD KECCAK256 PUSH0 SHR SWAP1 POP SWAP2 SWAP1 POP JUMP JUMPDEST PUSH0 PUSH2 0x1C89 DUP3 DUP5 LT DUP5 DUP5 PUSH2 0x1C91 JUMP JUMPDEST SWAP1 POP SWAP3 SWAP2 POP POP JUMP JUMPDEST PUSH0 PUSH2 0x1C9B DUP5 PUSH2 0x1CAA JUMP JUMPDEST DUP3 DUP5 XOR MUL DUP3 XOR SWAP1 POP SWAP4 SWAP3 POP POP POP JUMP JUMPDEST PUSH0 DUP2 ISZERO ISZERO SWAP1 POP SWAP2 SWAP1 POP JUMP JUMPDEST POP DUP1 SLOAD PUSH0 DUP3 SSTORE PUSH1 0x1F ADD PUSH1 0x20 SWAP1 DIV SWAP1 PUSH0 MSTORE PUSH1 0x20 PUSH0 KECCAK256 SWAP1 DUP2 ADD SWAP1 PUSH2 0x1CD7 SWAP2 SWAP1 PUSH2 0x1CF8 JUMP JUMPDEST POP JUMP JUMPDEST POP DUP1 SLOAD PUSH0 DUP3 SSTORE SWAP1 PUSH0 MSTORE PUSH1 0x20 PUSH0 KECCAK256 SWAP1 DUP2 ADD SWAP1 PUSH2 0x1CF5 SWAP2 SWAP1 PUSH2 0x1CF8 JUMP JUMPDEST POP JUMP JUMPDEST JUMPDEST DUP1 DUP3 GT ISZERO PUSH2 0x1D0F JUMPI PUSH0 DUP2 PUSH0 SWAP1 SSTORE POP PUSH1 0x1 ADD PUSH2 0x1CF9 JUMP JUMPDEST POP SWAP1 JUMP JUMPDEST PUSH0 PUSH1 0xFF DUP3 AND SWAP1 POP SWAP2 SWAP1 POP JUMP JUMPDEST PUSH2 0x1D28 DUP2 PUSH2 0x1D13 JUMP JUMPDEST DUP3 MSTORE POP POP JUMP JUMPDEST PUSH0 PUSH1 0x20 DUP3 ADD SWAP1 POP PUSH2 0x1D41 PUSH0 DUP4 ADD DUP5 PUSH2 0x1D1F JUMP JUMPDEST SWAP3 SWAP2 POP POP JUMP JUMPDEST PUSH0 DUP2 MLOAD SWAP1 POP SWAP2 SWAP1 POP JUMP JUMPDEST PUSH0 DUP3 DUP3 MSTORE PUSH1 0x20 DUP3 ADD SWAP1 POP SWAP3 SWAP2 POP POP JUMP JUMPDEST PUSH0 DUP2 SWAP1 POP PUSH1 0x20 DUP3 ADD SWAP1 POP SWAP2 SWAP1 POP JUMP JUMPDEST PUSH0 DUP2 SWAP1 POP SWAP2 SWAP1 POP JUMP JUMPDEST PUSH2 0x1D82 DUP2 PUSH2 0x1D70 JUMP JUMPDEST DUP3 MSTORE POP POP JUMP JUMPDEST PUSH0 PUSH2 0x1D93 DUP4 DUP4 PUSH2 0x1D79 JUMP JUMPDEST PUSH1 0x20 DUP4 ADD SWAP1 POP SWAP3 SWAP2 POP POP JUMP JUMPDEST PUSH0 PUSH1 0x20 DUP3 ADD SWAP1 POP SWAP2 SWAP1 POP JUMP JUMPDEST PUSH0 PUSH2 0x1DB5 DUP3 PUSH2 0x1D47 JUMP JUMPDEST PUSH2 0x1DBF DUP2 DUP6 PUSH2 0x1D51 JUMP JUMPDEST SWAP4 POP PUSH2 0x1DCA DUP4 PUSH2 0x1D61 JUMP JUMPDEST DUP1 PUSH0 JUMPDEST DUP4 DUP2 LT ISZERO PUSH2 0x1DFA JUMPI DUP2 MLOAD PUSH2 0x1DE1 DUP9 DUP3 PUSH2 0x1D88 JUMP JUMPDEST SWAP8 POP PUSH2 0x1DEC DUP4 PUSH2 0x1D9F JUMP JUMPDEST SWAP3 POP POP PUSH1 0x1 DUP2 ADD SWAP1 POP PUSH2 0x1DCD JUMP JUMPDEST POP DUP6 SWAP4 POP POP POP POP SWAP3 SWAP2 POP POP JUMP JUMPDEST PUSH0 PUSH1 0x20 DUP3 ADD SWAP1 POP DUP2 DUP2 SUB PUSH0 DUP4 ADD MSTORE PUSH2 0x1E1F DUP2 DUP5 PUSH2 0x1DAB JUMP JUMPDEST SWAP1 POP SWAP3 SWAP2 POP POP JUMP JUMPDEST PUSH0 PUSH20 0xFFFFFFFFFFFFFFFFFFFFFFFFFFFFFFFFFFFFFFFF DUP3 AND SWAP1 POP SWAP2 SWAP1 POP JUMP JUMPDEST PUSH0 PUSH2 0x1E50 DUP3 PUSH2 0x1E27 JUMP JUMPDEST SWAP1 POP SWAP2 SWAP1 POP JUMP JUMPDEST PUSH2 0x1E60 DUP2 PUSH2 0x1E46 JUMP JUMPDEST DUP3 MSTORE POP POP JUMP JUMPDEST PUSH0 PUSH1 0x20 DUP3 ADD SWAP1 POP PUSH2 0x1E79 PUSH0 DUP4 ADD DUP5 PUSH2 0x1E57 JUMP JUMPDEST SWAP3 SWAP2 POP POP JUMP JUMPDEST PUSH32 0x4E487B7100000000000000000000000000000000000000000000000000000000 PUSH0 MSTORE PUSH1 0x21 PUSH1 0x4 MSTORE PUSH1 0x24 PUSH0 REVERT JUMPDEST PUSH1 0x4 DUP2 LT PUSH2 0x1EBD JUMPI PUSH2 0x1EBC PUSH2 0x1E7F JUMP JUMPDEST JUMPDEST POP JUMP JUMPDEST PUSH0 DUP2 SWAP1 POP PUSH2 0x1ECD DUP3 PUSH2 0x1EAC JUMP JUMPDEST SWAP2 SWAP1 POP JUMP JUMPDEST PUSH0 PUSH2 0x1EDC DUP3 PUSH2 0x1EC0 JUMP JUMPDEST SWAP1 POP SWAP2 SWAP1 POP JUMP JUMPDEST PUSH2 0x1EEC DUP2 PUSH2 0x1ED2 JUMP JUMPDEST DUP3 MSTORE POP POP JUMP JUMPDEST PUSH0 PUSH1 0x20 DUP3 ADD SWAP1 POP PUSH2 0x1F05 PUSH0 DUP4 ADD DUP5 PUSH2 0x1EE3 JUMP JUMPDEST SWAP3 SWAP2 POP POP JUMP JUMPDEST PUSH0 DUP3 DUP3 MSTORE PUSH1 0x20 DUP3 ADD SWAP1 POP SWAP3 SWAP2 POP POP JUMP JUMPDEST PUSH32 0x4F6E6C7920746865206465616C65722063616E206465616C2E00000000000000 PUSH0 DUP3 ADD MSTORE POP JUMP JUMPDEST PUSH0 PUSH2 0x1F4F PUSH1 0x19 DUP4 PUSH2 0x1F0B JUMP JUMPDEST SWAP2 POP PUSH2 0x1F5A DUP3 PUSH2 0x1F1B JUMP JUMPDEST PUSH1 0x20 DUP3 ADD SWAP1 POP SWAP2 SWAP1 POP JUMP JUMPDEST PUSH0 PUSH1 0x20 DUP3 ADD SWAP1 POP DUP2 DUP2 SUB PUSH0 DUP4 ADD MSTORE PUSH2 0x1F7C DUP2 PUSH2 0x1F43 JUMP JUMPDEST SWAP1 POP SWAP2 SWAP1 POP JUMP JUMPDEST PUSH32 0x43757272656E7420726F756E64206973207374696C6C2072756E6E696E672E00 PUSH0 DUP3 ADD MSTORE POP JUMP JUMPDEST PUSH0 PUSH2 0x1FB7 PUSH1 0x1F DUP4 PUSH2 0x1F0B JUMP JUMPDEST SWAP2 POP PUSH2 0x1FC2 DUP3 PUSH2 0x1F83 JUMP JUMPDEST PUSH1 0x20 DUP3 ADD SWAP1 POP SWAP2 SWAP1 POP JUMP JUMPDEST PUSH0 PUSH1 0x20 DUP3 ADD SWAP1 POP DUP2 DUP2 SUB PUSH0 DUP4 ADD MSTORE PUSH2 0x1FE4 DUP2 PUSH2 0x1FAB JUMP JUMPDEST SWAP1 POP SWAP2 SWAP1 POP JUMP JUMPDEST PUSH32 0x4E6F20706C617965727320617265207265676973746572656420666F72207468 PUSH0 DUP3 ADD MSTORE PUSH32 0x697320726F756E642E0000000000000000000000000000000000000000000000 PUSH1 0x20 DUP3 ADD MSTORE POP JUMP JUMPDEST PUSH0 PUSH2 0x2045 PUSH1 0x29 DUP4 PUSH2 0x1F0B JUMP JUMPDEST SWAP2 POP PUSH2 0x2050 DUP3 PUSH2 0x1FEB JUMP JUMPDEST PUSH1 0x40 DUP3 ADD SWAP1 POP SWAP2 SWAP1 POP JUMP JUMPDEST PUSH0 PUSH1 0x20 DUP3 ADD SWAP1 POP DUP2 DUP2 SUB PUSH0 DUP4 ADD MSTORE PUSH2 0x2072 DUP2 PUSH2 0x2039 JUMP JUMPDEST SWAP1 POP SWAP2 SWAP1 POP JUMP JUMPDEST PUSH32 0x4E487B7100000000000000000000000000000000000000000000000000000000 PUSH0 MSTORE PUSH1 0x11 PUSH1 0x4 MSTORE PUSH1 0x24 PUSH0 REVERT JUMPDEST PUSH0 PUSH2 0x20B0 DUP3 PUSH2 0x1D70 JUMP JUMPDEST SWAP2 POP PUSH2 0x20BB DUP4 PUSH2 0x1D70 JUMP JUMPDEST SWAP3 POP DUP3 DUP3 ADD SWAP1 POP DUP1 DUP3 GT ISZERO PUSH2 0x20D3 JUMPI PUSH2 0x20D2 PUSH2 0x2079 JUMP JUMPDEST JUMPDEST SWAP3 SWAP2 POP POP JUMP JUMPDEST PUSH32 0x4E487B7100000000000000000000000000000000000000000000000000000000 PUSH0 MSTORE PUSH1 0x41 PUSH1 0x4 MSTORE PUSH1 0x24 PUSH0 REVERT JUMPDEST PUSH32 0x4E487B7100000000000000000000000000000000000000000000000000000000 PUSH0 MSTORE PUSH1 0x32 PUSH1 0x4 MSTORE PUSH1 0x24 PUSH0 REVERT JUMPDEST PUSH32 0x4465616C65722063616E6E6F7420706C61636520626574732E00000000000000 PUSH0 DUP3 ADD MSTORE POP JUMP JUMPDEST PUSH0 PUSH2 0x2167 PUSH1 0x19 DUP4 PUSH2 0x1F0B JUMP JUMPDEST SWAP2 POP PUSH2 0x2172 DUP3 PUSH2 0x2133 JUMP JUMPDEST PUSH1 0x20 DUP3 ADD SWAP1 POP SWAP2 SWAP1 POP JUMP JUMPDEST PUSH0 PUSH1 0x20 DUP3 ADD SWAP1 POP DUP2 DUP2 SUB PUSH0 DUP4 ADD MSTORE PUSH2 0x2194 DUP2 PUSH2 0x215B JUMP JUMPDEST SWAP1 POP SWAP2 SWAP1 POP JUMP JUMPDEST PUSH32 0x4E6F742074616B696E6720616E79206E657720706C61796572732E0000000000 PUSH0 DUP3 ADD MSTORE POP JUMP JUMPDEST PUSH0 PUSH2 0x21CF PUSH1 0x1B DUP4 PUSH2 0x1F0B JUMP JUMPDEST SWAP2 POP PUSH2 0x21DA DUP3 PUSH2 0x219B JUMP JUMPDEST PUSH1 0x20 DUP3 ADD SWAP1 POP SWAP2 SWAP1 POP JUMP JUMPDEST PUSH0 PUSH1 0x20 DUP3 ADD SWAP1 POP DUP2 DUP2 SUB PUSH0 DUP4 ADD MSTORE PUSH2 0x21FC DUP2 PUSH2 0x21C3 JUMP JUMPDEST SWAP1 POP SWAP2 SWAP1 POP JUMP JUMPDEST PUSH32 0x506C6179657220697320616C726561647920696E207468652067616D652E0000 PUSH0 DUP3 ADD MSTORE POP JUMP JUMPDEST PUSH0 PUSH2 0x2237 PUSH1 0x1E DUP4 PUSH2 0x1F0B JUMP JUMPDEST SWAP2 POP PUSH2 0x2242 DUP3 PUSH2 0x2203 JUMP JUMPDEST PUSH1 0x20 DUP3 ADD SWAP1 POP SWAP2 SWAP1 POP JUMP JUMPDEST PUSH0 PUSH1 0x20 DUP3 ADD SWAP1 POP DUP2 DUP2 SUB PUSH0 DUP4 ADD MSTORE PUSH2 0x2264 DUP2 PUSH2 0x222B JUMP JUMPDEST SWAP1 POP SWAP2 SWAP1 POP JUMP JUMPDEST PUSH32 0x4D6178696D756D206E756D626572206F6620706C617965727320726561636865 PUSH0 DUP3 ADD MSTORE PUSH32 0x642E000000000000000000000000000000000000000000000000000000000000 PUSH1 0x20 DUP3 ADD MSTORE POP JUMP JUMPDEST PUSH0 PUSH2 0x22C5 PUSH1 0x22 DUP4 PUSH2 0x1F0B JUMP JUMPDEST SWAP2 POP PUSH2 0x22D0 DUP3 PUSH2 0x226B JUMP JUMPDEST PUSH1 0x40 DUP3 ADD SWAP1 POP SWAP2 SWAP1 POP JUMP JUMPDEST PUSH0 PUSH1 0x20 DUP3 ADD SWAP1 POP DUP2 DUP2 SUB PUSH0 DUP4 ADD MSTORE PUSH2 0x22F2 DUP2 PUSH2 0x22B9 JUMP JUMPDEST SWAP1 POP SWAP2 SWAP1 POP JUMP JUMPDEST PUSH32 0x506C617965722063616E6E6F7420686974206F72207374616E64206375727265 PUSH0 DUP3 ADD MSTORE PUSH32 0x6E746C792E000000000000000000000000000000000000000000000000000000 PUSH1 0x20 DUP3 ADD MSTORE POP JUMP JUMPDEST PUSH0 PUSH2 0x2353 PUSH1 0x25 DUP4 PUSH2 0x1F0B JUMP JUMPDEST SWAP2 POP PUSH2 0x235E DUP3 PUSH2 0x22F9 JUMP JUMPDEST PUSH1 0x40 DUP3 ADD SWAP1 POP SWAP2 SWAP1 POP JUMP JUMPDEST PUSH0 PUSH1 0x20 DUP3 ADD SWAP1 POP DUP2 DUP2 SUB PUSH0 DUP4 ADD MSTORE PUSH2 0x2380 DUP2 PUSH2 0x2347 JUMP JUMPDEST SWAP1 POP SWAP2 SWAP1 POP JUMP JUMPDEST PUSH32 0x43757272656E746C79206E6F7420616C6C6F77696E6720686974206F72207374 PUSH0 DUP3 ADD MSTORE PUSH32 0x616E6420616374696F6E732E0000000000000000000000000000000000000000 PUSH1 0x20 DUP3 ADD MSTORE POP JUMP JUMPDEST PUSH0 PUSH2 0x23E1 PUSH1 0x2C DUP4 PUSH2 0x1F0B JUMP JUMPDEST SWAP2 POP PUSH2 0x23EC DUP3 PUSH2 0x2387 JUMP JUMPDEST PUSH1 0x40 DUP3 ADD SWAP1 POP SWAP2 SWAP1 POP JUMP JUMPDEST PUSH0 PUSH1 0x20 DUP3 ADD SWAP1 POP DUP2 DUP2 SUB PUSH0 DUP4 ADD MSTORE PUSH2 0x240E DUP2 PUSH2 0x23D5 JUMP JUMPDEST SWAP1 POP SWAP2 SWAP1 POP JUMP JUMPDEST PUSH32 0x526F756E6420646F6573206E6F742061636365707420616E79206D6F72652063 PUSH0 DUP3 ADD MSTORE PUSH32 0x68616E6765732E00000000000000000000000000000000000000000000000000 PUSH1 0x20 DUP3 ADD MSTORE POP JUMP JUMPDEST PUSH0 PUSH2 0x246F PUSH1 0x27 DUP4 PUSH2 0x1F0B JUMP JUMPDEST SWAP2 POP PUSH2 0x247A DUP3 PUSH2 0x2415 JUMP JUMPDEST PUSH1 0x40 DUP3 ADD SWAP1 POP SWAP2 SWAP1 POP JUMP JUMPDEST PUSH0 PUSH1 0x20 DUP3 ADD SWAP1 POP DUP2 DUP2 SUB PUSH0 DUP4 ADD MSTORE PUSH2 0x249C DUP2 PUSH2 0x2463 JUMP JUMPDEST SWAP1 POP SWAP2 SWAP1 POP JUMP JUMPDEST PUSH0 PUSH2 0x24AD DUP3 PUSH2 0x1D70 JUMP JUMPDEST SWAP2 POP PUSH32 0xFFFFFFFFFFFFFFFFFFFFFFFFFFFFFFFFFFFFFFFFFFFFFFFFFFFFFFFFFFFFFFFF DUP3 SUB PUSH2 0x24DF JUMPI PUSH2 0x24DE PUSH2 0x2079 JUMP JUMPDEST JUMPDEST PUSH1 0x1 DUP3 ADD SWAP1 POP SWAP2 SWAP1 POP JUMP JUMPDEST PUSH32 0x4E487B7100000000000000000000000000000000000000000000000000000000 PUSH0 MSTORE PUSH1 0x12 PUSH1 0x4 MSTORE PUSH1 0x24 PUSH0 REVERT JUMPDEST PUSH0 PUSH2 0x2521 DUP3 PUSH2 0x1D70 JUMP JUMPDEST SWAP2 POP PUSH2 0x252C DUP4 PUSH2 0x1D70 JUMP JUMPDEST SWAP3 POP DUP3 PUSH2 0x253C JUMPI PUSH2 0x253B PUSH2 0x24EA JUMP JUMPDEST JUMPDEST DUP3 DUP3 MOD SWAP1 POP SWAP3 SWAP2 POP POP JUMP JUMPDEST PUSH0 PUSH2 0x2551 DUP3 PUSH2 0x1D70 JUMP JUMPDEST SWAP2 POP PUSH0 DUP3 SUB PUSH2 0x2563 JUMPI PUSH2 0x2562 PUSH2 0x2079 JUMP JUMPDEST JUMPDEST PUSH1 0x1 DUP3 SUB SWAP1 POP SWAP2 SWAP1 POP JUMP JUMPDEST PUSH0 PUSH2 0x2578 DUP3 PUSH2 0x1D70 JUMP JUMPDEST SWAP2 POP PUSH2 0x2583 DUP4 PUSH2 0x1D70 JUMP JUMPDEST SWAP3 POP DUP3 DUP3 SUB SWAP1 POP DUP2 DUP2 GT ISZERO PUSH2 0x259B JUMPI PUSH2 0x259A PUSH2 0x2079 JUMP JUMPDEST JUMPDEST SWAP3 SWAP2 POP POP JUMP JUMPDEST PUSH0 DUP2 PUSH1 0x60 SHL SWAP1 POP SWAP2 SWAP1 POP JUMP JUMPDEST PUSH0 PUSH2 0x25B7 DUP3 PUSH2 0x25A1 JUMP JUMPDEST SWAP1 POP SWAP2 SWAP1 POP JUMP JUMPDEST PUSH0 PUSH2 0x25C8 DUP3 PUSH2 0x25AD JUMP JUMPDEST SWAP1 POP SWAP2 SWAP1 POP JUMP JUMPDEST PUSH2 0x25E0 PUSH2 0x25DB DUP3 PUSH2 0x1E46 JUMP JUMPDEST PUSH2 0x25BE JUMP JUMPDEST DUP3 MSTORE POP POP JUMP JUMPDEST PUSH0 DUP2 SWAP1 POP SWAP2 SWAP1 POP JUMP JUMPDEST PUSH2 0x2600 PUSH2 0x25FB DUP3 PUSH2 0x1D70 JUMP JUMPDEST PUSH2 0x25E6 JUMP JUMPDEST DUP3 MSTORE POP POP JUMP JUMPDEST PUSH0 DUP2 SWAP1 POP SWAP2 SWAP1 POP JUMP JUMPDEST PUSH0 DUP2 SWAP1 POP SWAP2 SWAP1 POP JUMP JUMPDEST PUSH2 0x2629 PUSH2 0x2624 DUP3 PUSH2 0x2606 JUMP JUMPDEST PUSH2 0x260F JUMP JUMPDEST DUP3 MSTORE POP POP JUMP JUMPDEST PUSH0 DUP2 SLOAD SWAP1 POP SWAP2 SWAP1 POP JUMP JUMPDEST PUSH0 DUP2 SWAP1 POP SWAP3 SWAP2 POP POP JUMP JUMPDEST PUSH0 DUP2 SWAP1 POP DUP2 PUSH0 MSTORE PUSH1 0x20 PUSH0 KECCAK256 SWAP1 POP SWAP2 SWAP1 POP JUMP JUMPDEST PUSH1 0xD DUP2 LT PUSH2 0x2666 JUMPI PUSH2 0x2665 PUSH2 0x1E7F JUMP JUMPDEST JUMPDEST POP JUMP JUMPDEST PUSH0 DUP2 SWAP1 POP PUSH2 0x2676 DUP3 PUSH2 0x2655 JUMP JUMPDEST SWAP2 SWAP1 POP JUMP JUMPDEST PUSH0 PUSH2 0x2685 DUP3 PUSH2 0x2669 JUMP JUMPDEST SWAP1 POP SWAP2 SWAP1 POP JUMP JUMPDEST PUSH2 0x2695 DUP2 PUSH2 0x267B JUMP JUMPDEST DUP3 MSTORE POP POP JUMP JUMPDEST PUSH0 DUP2 PUSH0 SHR SWAP1 POP SWAP2 SWAP1 POP JUMP JUMPDEST PUSH0 PUSH1 0xFF DUP3 AND SWAP1 POP SWAP2 SWAP1 POP JUMP JUMPDEST PUSH0 PUSH2 0x26C4 PUSH2 0x26BF DUP4 PUSH2 0x269B JUMP JUMPDEST PUSH2 0x26A6 JUMP JUMPDEST SWAP1 POP SWAP2 SWAP1 POP JUMP JUMPDEST PUSH0 DUP2 PUSH1 0x8 SHR SWAP1 POP SWAP2 SWAP1 POP JUMP JUMPDEST PUSH0 PUSH2 0x26E9 PUSH2 0x26E4 DUP4 PUSH2 0x26CB JUMP JUMPDEST PUSH2 0x26A6 JUMP JUMPDEST SWAP1 POP SWAP2 SWAP1 POP JUMP JUMPDEST PUSH0 DUP2 PUSH1 0x10 SHR SWAP1 POP SWAP2 SWAP1 POP JUMP JUMPDEST PUSH0 PUSH2 0x270E PUSH2 0x2709 DUP4 PUSH2 0x26F0 JUMP JUMPDEST PUSH2 0x26A6 JUMP JUMPDEST SWAP1 POP SWAP2 SWAP1 POP JUMP JUMPDEST PUSH0 DUP2 PUSH1 0x18 SHR SWAP1 POP SWAP2 SWAP1 POP JUMP JUMPDEST PUSH0 PUSH2 0x2733 PUSH2 0x272E DUP4 PUSH2 0x2715 JUMP JUMPDEST PUSH2 0x26A6 JUMP JUMPDEST SWAP1 POP SWAP2 SWAP1 POP JUMP JUMPDEST PUSH0 DUP2 PUSH1 0x20 SHR SWAP1 POP SWAP2 SWAP1 POP JUMP JUMPDEST PUSH0 PUSH2 0x2758 PUSH2 0x2753 DUP4 PUSH2 0x273A JUMP JUMPDEST PUSH2 0x26A6 JUMP JUMPDEST SWAP1 POP SWAP2 SWAP1 POP JUMP JUMPDEST PUSH0 DUP2 PUSH1 0x28 SHR SWAP1 POP SWAP2 SWAP1 POP JUMP JUMPDEST PUSH0 PUSH2 0x277D PUSH2 0x2778 DUP4 PUSH2 0x275F JUMP JUMPDEST PUSH2 0x26A6 JUMP JUMPDEST SWAP1 POP SWAP2 SWAP1 POP JUMP JUMPDEST PUSH0 DUP2 PUSH1 0x30 SHR SWAP1 POP SWAP2 SWAP1 POP JUMP JUMPDEST PUSH0 PUSH2 0x27A2 PUSH2 0x279D DUP4 PUSH2 0x2784 JUMP JUMPDEST PUSH2 0x26A6 JUMP JUMPDEST SWAP1 POP SWAP2 SWAP1 POP JUMP JUMPDEST PUSH0 DUP2 PUSH1 0x38 SHR SWAP1 POP SWAP2 SWAP1 POP JUMP JUMPDEST PUSH0 PUSH2 0x27C7 PUSH2 0x27C2 DUP4 PUSH2 0x27A9 JUMP JUMPDEST PUSH2 0x26A6 JUMP JUMPDEST SWAP1 POP SWAP2 SWAP1 POP JUMP JUMPDEST PUSH0 DUP2 PUSH1 0x40 SHR SWAP1 POP SWAP2 SWAP1 POP JUMP JUMPDEST PUSH0 PUSH2 0x27EC PUSH2 0x27E7 DUP4 PUSH2 0x27CE JUMP JUMPDEST PUSH2 0x26A6 JUMP JUMPDEST SWAP1 POP SWAP2 SWAP1 POP JUMP JUMPDEST PUSH0 DUP2 PUSH1 0x48 SHR SWAP1 POP SWAP2 SWAP1 POP JUMP JUMPDEST PUSH0 PUSH2 0x2811 PUSH2 0x280C DUP4 PUSH2 0x27F3 JUMP JUMPDEST PUSH2 0x26A6 JUMP JUMPDEST SWAP1 POP SWAP2 SWAP1 POP JUMP JUMPDEST PUSH0 DUP2 PUSH1 0x50 SHR SWAP1 POP SWAP2 SWAP1 POP JUMP JUMPDEST PUSH0 PUSH2 0x2836 PUSH2 0x2831 DUP4 PUSH2 0x2818 JUMP JUMPDEST PUSH2 0x26A6 JUMP JUMPDEST SWAP1 POP SWAP2 SWAP1 POP JUMP JUMPDEST PUSH0 DUP2 PUSH1 0x58 SHR SWAP1 POP SWAP2 SWAP1 POP JUMP JUMPDEST PUSH0 PUSH2 0x285B PUSH2 0x2856 DUP4 PUSH2 0x283D JUMP JUMPDEST PUSH2 0x26A6 JUMP JUMPDEST SWAP1 POP SWAP2 SWAP1 POP JUMP JUMPDEST PUSH0 DUP2 PUSH1 0x60 SHR SWAP1 POP SWAP2 SWAP1 POP JUMP JUMPDEST PUSH0 PUSH2 0x2880 PUSH2 0x287B DUP4 PUSH2 0x2862 JUMP JUMPDEST PUSH2 0x26A6 JUMP JUMPDEST SWAP1 POP SWAP2 SWAP1 POP JUMP JUMPDEST PUSH0 DUP2 PUSH1 0x68 SHR SWAP1 POP SWAP2 SWAP1 POP JUMP JUMPDEST PUSH0 PUSH2 0x28A5 PUSH2 0x28A0 DUP4 PUSH2 0x2887 JUMP JUMPDEST PUSH2 0x26A6 JUMP JUMPDEST SWAP1 POP SWAP2 SWAP1 POP JUMP JUMPDEST PUSH0 DUP2 PUSH1 0x70 SHR SWAP1 POP SWAP2 SWAP1 POP JUMP JUMPDEST PUSH0 PUSH2 0x28CA PUSH2 0x28C5 DUP4 PUSH2 0x28AC JUMP JUMPDEST PUSH2 0x26A6 JUMP JUMPDEST SWAP1 POP SWAP2 SWAP1 POP JUMP JUMPDEST PUSH0 DUP2 PUSH1 0x78 SHR SWAP1 POP SWAP2 SWAP1 POP JUMP JUMPDEST PUSH0 PUSH2 0x28EF PUSH2 0x28EA DUP4 PUSH2 0x28D1 JUMP JUMPDEST PUSH2 0x26A6 JUMP JUMPDEST SWAP1 POP SWAP2 SWAP1 POP JUMP JUMPDEST PUSH0 DUP2 PUSH1 0x80 SHR SWAP1 POP SWAP2 SWAP1 POP JUMP JUMPDEST PUSH0 PUSH2 0x2914 PUSH2 0x290F DUP4 PUSH2 0x28F6 JUMP JUMPDEST PUSH2 0x26A6 JUMP JUMPDEST SWAP1 POP SWAP2 SWAP1 POP JUMP JUMPDEST PUSH0 DUP2 PUSH1 0x88 SHR SWAP1 POP SWAP2 SWAP1 POP JUMP JUMPDEST PUSH0 PUSH2 0x2939 PUSH2 0x2934 DUP4 PUSH2 0x291B JUMP JUMPDEST PUSH2 0x26A6 JUMP JUMPDEST SWAP1 POP SWAP2 SWAP1 POP JUMP JUMPDEST PUSH0 DUP2 PUSH1 0x90 SHR SWAP1 POP SWAP2 SWAP1 POP JUMP JUMPDEST PUSH0 PUSH2 0x295E PUSH2 0x2959 DUP4 PUSH2 0x2940 JUMP JUMPDEST PUSH2 0x26A6 JUMP JUMPDEST SWAP1 POP SWAP2 SWAP1 POP JUMP JUMPDEST PUSH0 DUP2 PUSH1 0x98 SHR SWAP1 POP SWAP2 SWAP1 POP JUMP JUMPDEST PUSH0 PUSH2 0x2983 PUSH2 0x297E DUP4 PUSH2 0x2965 JUMP JUMPDEST PUSH2 0x26A6 JUMP JUMPDEST SWAP1 POP SWAP2 SWAP1 POP JUMP JUMPDEST PUSH0 DUP2 PUSH1 0xA0 SHR SWAP1 POP SWAP2 SWAP1 POP JUMP JUMPDEST PUSH0 PUSH2 0x29A8 PUSH2 0x29A3 DUP4 PUSH2 0x298A JUMP JUMPDEST PUSH2 0x26A6 JUMP JUMPDEST SWAP1 POP SWAP2 SWAP1 POP JUMP JUMPDEST PUSH0 DUP2 PUSH1 0xA8 SHR SWAP1 POP SWAP2 SWAP1 POP JUMP JUMPDEST PUSH0 PUSH2 0x29CD PUSH2 0x29C8 DUP4 PUSH2 0x29AF JUMP JUMPDEST PUSH2 0x26A6 JUMP JUMPDEST SWAP1 POP SWAP2 SWAP1 POP JUMP JUMPDEST PUSH0 DUP2 PUSH1 0xB0 SHR SWAP1 POP SWAP2 SWAP1 POP JUMP JUMPDEST PUSH0 PUSH2 0x29F2 PUSH2 0x29ED DUP4 PUSH2 0x29D4 JUMP JUMPDEST PUSH2 0x26A6 JUMP JUMPDEST SWAP1 POP SWAP2 SWAP1 POP JUMP JUMPDEST PUSH0 DUP2 PUSH1 0xB8 SHR SWAP1 POP SWAP2 SWAP1 POP JUMP JUMPDEST PUSH0 PUSH2 0x2A17 PUSH2 0x2A12 DUP4 PUSH2 0x29F9 JUMP JUMPDEST PUSH2 0x26A6 JUMP JUMPDEST SWAP1 POP SWAP2 SWAP1 POP JUMP JUMPDEST PUSH0 DUP2 PUSH1 0xC0 SHR SWAP1 POP SWAP2 SWAP1 POP JUMP JUMPDEST PUSH0 PUSH2 0x2A3C PUSH2 0x2A37 DUP4 PUSH2 0x2A1E JUMP JUMPDEST PUSH2 0x26A6 JUMP JUMPDEST SWAP1 POP SWAP2 SWAP1 POP JUMP JUMPDEST PUSH0 DUP2 PUSH1 0xC8 SHR SWAP1 POP SWAP2 SWAP1 POP JUMP JUMPDEST PUSH0 PUSH2 0x2A61 PUSH2 0x2A5C DUP4 PUSH2 0x2A43 JUMP JUMPDEST PUSH2 0x26A6 JUMP JUMPDEST SWAP1 POP SWAP2 SWAP1 POP JUMP JUMPDEST PUSH0 DUP2 PUSH1 0xD0 SHR SWAP1 POP SWAP2 SWAP1 POP JUMP JUMPDEST PUSH0 PUSH2 0x2A86 PUSH2 0x2A81 DUP4 PUSH2 0x2A68 JUMP JUMPDEST PUSH2 0x26A6 JUMP JUMPDEST SWAP1 POP SWAP2 SWAP1 POP JUMP JUMPDEST PUSH0 DUP2 PUSH1 0xD8 SHR SWAP1 POP SWAP2 SWAP1 POP JUMP JUMPDEST PUSH0 PUSH2 0x2AAB PUSH2 0x2AA6 DUP4 PUSH2 0x2A8D JUMP JUMPDEST PUSH2 0x26A6 JUMP JUMPDEST SWAP1 POP SWAP2 SWAP1 POP JUMP JUMPDEST PUSH0 DUP2 PUSH1 0xE0 SHR SWAP1 POP SWAP2 SWAP1 POP JUMP JUMPDEST PUSH0 PUSH2 0x2AD0 PUSH2 0x2ACB DUP4 PUSH2 0x2AB2 JUMP JUMPDEST PUSH2 0x26A6 JUMP JUMPDEST SWAP1 POP SWAP2 SWAP1 POP JUMP JUMPDEST PUSH0 DUP2 PUSH1 0xE8 SHR SWAP1 POP SWAP2 SWAP1 POP JUMP JUMPDEST PUSH0 PUSH2 0x2AF5 PUSH2 0x2AF0 DUP4 PUSH2 0x2AD7 JUMP JUMPDEST PUSH2 0x26A6 JUMP JUMPDEST SWAP1 POP SWAP2 SWAP1 POP JUMP JUMPDEST PUSH0 DUP2 PUSH1 0xF0 SHR SWAP1 POP SWAP2 SWAP1 POP JUMP JUMPDEST PUSH0 PUSH2 0x2B1A PUSH2 0x2B15 DUP4 PUSH2 0x2AFC JUMP JUMPDEST PUSH2 0x26A6 JUMP JUMPDEST SWAP1 POP SWAP2 SWAP1 POP JUMP JUMPDEST PUSH0 DUP2 PUSH1 0xF8 SHR SWAP1 POP SWAP2 SWAP1 POP JUMP JUMPDEST PUSH0 PUSH2 0x2B3F PUSH2 0x2B3A DUP4 PUSH2 0x2B21 JUMP JUMPDEST PUSH2 0x26A6 JUMP JUMPDEST SWAP1 POP SWAP2 SWAP1 POP JUMP JUMPDEST PUSH0 PUSH2 0x2B50 DUP3 PUSH2 0x262F JUMP JUMPDEST PUSH2 0x2B5A DUP2 DUP6 PUSH2 0x2639 JUMP JUMPDEST SWAP4 POP DUP4 PUSH2 0x2B66 DUP5 PUSH2 0x2643 JUMP JUMPDEST PUSH0 PUSH1 0x1 ISZERO PUSH2 0x2E92 JUMPI JUMPDEST DUP4 PUSH1 0x1 PUSH1 0x20 SUB DUP3 ADD LT ISZERO PUSH2 0x2E91 JUMPI DUP2 SLOAD PUSH2 0x2B91 DUP9 PUSH2 0x2B8C DUP4 PUSH2 0x26B2 JUMP JUMPDEST PUSH2 0x268C JUMP JUMPDEST PUSH1 0x20 DUP9 ADD SWAP8 POP PUSH2 0x2BA9 DUP9 PUSH2 0x2BA4 DUP4 PUSH2 0x26D7 JUMP JUMPDEST PUSH2 0x268C JUMP JUMPDEST PUSH1 0x20 DUP9 ADD SWAP8 POP PUSH2 0x2BC1 DUP9 PUSH2 0x2BBC DUP4 PUSH2 0x26FC JUMP JUMPDEST PUSH2 0x268C JUMP JUMPDEST PUSH1 0x20 DUP9 ADD SWAP8 POP PUSH2 0x2BD9 DUP9 PUSH2 0x2BD4 DUP4 PUSH2 0x2721 JUMP JUMPDEST PUSH2 0x268C JUMP JUMPDEST PUSH1 0x20 DUP9 ADD SWAP8 POP PUSH2 0x2BF1 DUP9 PUSH2 0x2BEC DUP4 PUSH2 0x2746 JUMP JUMPDEST PUSH2 0x268C JUMP JUMPDEST PUSH1 0x20 DUP9 ADD SWAP8 POP PUSH2 0x2C09 DUP9 PUSH2 0x2C04 DUP4 PUSH2 0x276B JUMP JUMPDEST PUSH2 0x268C JUMP JUMPDEST PUSH1 0x20 DUP9 ADD SWAP8 POP PUSH2 0x2C21 DUP9 PUSH2 0x2C1C DUP4 PUSH2 0x2790 JUMP JUMPDEST PUSH2 0x268C JUMP JUMPDEST PUSH1 0x20 DUP9 ADD SWAP8 POP PUSH2 0x2C39 DUP9 PUSH2 0x2C34 DUP4 PUSH2 0x27B5 JUMP JUMPDEST PUSH2 0x268C JUMP JUMPDEST PUSH1 0x20 DUP9 ADD SWAP8 POP PUSH2 0x2C51 DUP9 PUSH2 0x2C4C DUP4 PUSH2 0x27DA JUMP JUMPDEST PUSH2 0x268C JUMP JUMPDEST PUSH1 0x20 DUP9 ADD SWAP8 POP PUSH2 0x2C69 DUP9 PUSH2 0x2C64 DUP4 PUSH2 0x27FF JUMP JUMPDEST PUSH2 0x268C JUMP JUMPDEST PUSH1 0x20 DUP9 ADD SWAP8 POP PUSH2 0x2C81 DUP9 PUSH2 0x2C7C DUP4 PUSH2 0x2824 JUMP JUMPDEST PUSH2 0x268C JUMP JUMPDEST PUSH1 0x20 DUP9 ADD SWAP8 POP PUSH2 0x2C99 DUP9 PUSH2 0x2C94 DUP4 PUSH2 0x2849 JUMP JUMPDEST PUSH2 0x268C JUMP JUMPDEST PUSH1 0x20 DUP9 ADD SWAP8 POP PUSH2 0x2CB1 DUP9 PUSH2 0x2CAC DUP4 PUSH2 0x286E JUMP JUMPDEST PUSH2 0x268C JUMP JUMPDEST PUSH1 0x20 DUP9 ADD SWAP8 POP PUSH2 0x2CC9 DUP9 PUSH2 0x2CC4 DUP4 PUSH2 0x2893 JUMP JUMPDEST PUSH2 0x268C JUMP JUMPDEST PUSH1 0x20 DUP9 ADD SWAP8 POP PUSH2 0x2CE1 DUP9 PUSH2 0x2CDC DUP4 PUSH2 0x28B8 JUMP JUMPDEST PUSH2 0x268C JUMP JUMPDEST PUSH1 0x20 DUP9 ADD SWAP8 POP PUSH2 0x2CF9 DUP9 PUSH2 0x2CF4 DUP4 PUSH2 0x28DD JUMP JUMPDEST PUSH2 0x268C JUMP JUMPDEST PUSH1 0x20 DUP9 ADD SWAP8 POP PUSH2 0x2D11 DUP9 PUSH2 0x2D0C DUP4 PUSH2 0x2902 JUMP JUMPDEST PUSH2 0x268C JUMP JUMPDEST PUSH1 0x20 DUP9 ADD SWAP8 POP PUSH2 0x2D29 DUP9 PUSH2 0x2D24 DUP4 PUSH2 0x2927 JUMP JUMPDEST PUSH2 0x268C JUMP JUMPDEST PUSH1 0x20 DUP9 ADD SWAP8 POP PUSH2 0x2D41 DUP9 PUSH2 0x2D3C DUP4 PUSH2 0x294C JUMP JUMPDEST PUSH2 0x268C JUMP JUMPDEST PUSH1 0x20 DUP9 ADD SWAP8 POP PUSH2 0x2D59 DUP9 PUSH2 0x2D54 DUP4 PUSH2 0x2971 JUMP JUMPDEST PUSH2 0x268C JUMP JUMPDEST PUSH1 0x20 DUP9 ADD SWAP8 POP PUSH2 0x2D71 DUP9 PUSH2 0x2D6C DUP4 PUSH2 0x2996 JUMP JUMPDEST PUSH2 0x268C JUMP JUMPDEST PUSH1 0x20 DUP9 ADD SWAP8 POP PUSH2 0x2D89 DUP9 PUSH2 0x2D84 DUP4 PUSH2 0x29BB JUMP JUMPDEST PUSH2 0x268C JUMP JUMPDEST PUSH1 0x20 DUP9 ADD SWAP8 POP PUSH2 0x2DA1 DUP9 PUSH2 0x2D9C DUP4 PUSH2 0x29E0 JUMP JUMPDEST PUSH2 0x268C JUMP JUMPDEST PUSH1 0x20 DUP9 ADD SWAP8 POP PUSH2 0x2DB9 DUP9 PUSH2 0x2DB4 DUP4 PUSH2 0x2A05 JUMP JUMPDEST PUSH2 0x268C JUMP JUMPDEST PUSH1 0x20 DUP9 ADD SWAP8 POP PUSH2 0x2DD1 DUP9 PUSH2 0x2DCC DUP4 PUSH2 0x2A2A JUMP JUMPDEST PUSH2 0x268C JUMP JUMPDEST PUSH1 0x20 DUP9 ADD SWAP8 POP PUSH2 0x2DE9 DUP9 PUSH2 0x2DE4 DUP4 PUSH2 0x2A4F JUMP JUMPDEST PUSH2 0x268C JUMP JUMPDEST PUSH1 0x20 DUP9 ADD SWAP8 POP PUSH2 0x2E01 DUP9 PUSH2 0x2DFC DUP4 PUSH2 0x2A74 JUMP JUMPDEST PUSH2 0x268C JUMP JUMPDEST PUSH1 0x20 DUP9 ADD SWAP8 POP PUSH2 0x2E19 DUP9 PUSH2 0x2E14 DUP4 PUSH2 0x2A99 JUMP JUMPDEST PUSH2 0x268C JUMP JUMPDEST PUSH1 0x20 DUP9 ADD SWAP8 POP PUSH2 0x2E31 DUP9 PUSH2 0x2E2C DUP4 PUSH2 0x2ABE JUMP JUMPDEST PUSH2 0x268C JUMP JUMPDEST PUSH1 0x20 DUP9 ADD SWAP8 POP PUSH2 0x2E49 DUP9 PUSH2 0x2E44 DUP4 PUSH2 0x2AE3 JUMP JUMPDEST PUSH2 0x268C JUMP JUMPDEST PUSH1 0x20 DUP9 ADD SWAP8 POP PUSH2 0x2E61 DUP9 PUSH2 0x2E5C DUP4 PUSH2 0x2B08 JUMP JUMPDEST PUSH2 0x268C JUMP JUMPDEST PUSH1 0x20 DUP9 ADD SWAP8 POP PUSH2 0x2E79 DUP9 PUSH2 0x2E74 DUP4 PUSH2 0x2B2D JUMP JUMPDEST PUSH2 0x268C JUMP JUMPDEST PUSH1 0x20 DUP9 ADD SWAP8 POP PUSH1 0x1 DUP4 ADD SWAP3 POP POP PUSH1 0x20 DUP2 ADD SWAP1 POP PUSH2 0x2B6F JUMP JUMPDEST JUMPDEST PUSH1 0x1 ISZERO PUSH2 0x337D JUMPI DUP2 SLOAD DUP5 DUP3 LT ISZERO PUSH2 0x2EC2 JUMPI PUSH2 0x2EB5 DUP9 PUSH2 0x2EB0 DUP4 PUSH2 0x26B2 JUMP JUMPDEST PUSH2 0x268C JUMP JUMPDEST PUSH1 0x20 DUP9 ADD SWAP8 POP PUSH1 0x1 DUP3 ADD SWAP2 POP JUMPDEST DUP5 DUP3 LT ISZERO PUSH2 0x2EE9 JUMPI PUSH2 0x2EDC DUP9 PUSH2 0x2ED7 DUP4 PUSH2 0x26D7 JUMP JUMPDEST PUSH2 0x268C JUMP JUMPDEST PUSH1 0x20 DUP9 ADD SWAP8 POP PUSH1 0x1 DUP3 ADD SWAP2 POP JUMPDEST DUP5 DUP3 LT ISZERO PUSH2 0x2F10 JUMPI PUSH2 0x2F03 DUP9 PUSH2 0x2EFE DUP4 PUSH2 0x26FC JUMP JUMPDEST PUSH2 0x268C JUMP JUMPDEST PUSH1 0x20 DUP9 ADD SWAP8 POP PUSH1 0x1 DUP3 ADD SWAP2 POP JUMPDEST DUP5 DUP3 LT ISZERO PUSH2 0x2F37 JUMPI PUSH2 0x2F2A DUP9 PUSH2 0x2F25 DUP4 PUSH2 0x2721 JUMP JUMPDEST PUSH2 0x268C JUMP JUMPDEST PUSH1 0x20 DUP9 ADD SWAP8 POP PUSH1 0x1 DUP3 ADD SWAP2 POP JUMPDEST DUP5 DUP3 LT ISZERO PUSH2 0x2F5E JUMPI PUSH2 0x2F51 DUP9 PUSH2 0x2F4C DUP4 PUSH2 0x2746 JUMP JUMPDEST PUSH2 0x268C JUMP JUMPDEST PUSH1 0x20 DUP9 ADD SWAP8 POP PUSH1 0x1 DUP3 ADD SWAP2 POP JUMPDEST DUP5 DUP3 LT ISZERO PUSH2 0x2F85 JUMPI PUSH2 0x2F78 DUP9 PUSH2 0x2F73 DUP4 PUSH2 0x276B JUMP JUMPDEST PUSH2 0x268C JUMP JUMPDEST PUSH1 0x20 DUP9 ADD SWAP8 POP PUSH1 0x1 DUP3 ADD SWAP2 POP JUMPDEST DUP5 DUP3 LT ISZERO PUSH2 0x2FAC JUMPI PUSH2 0x2F9F DUP9 PUSH2 0x2F9A DUP4 PUSH2 0x2790 JUMP JUMPDEST PUSH2 0x268C JUMP JUMPDEST PUSH1 0x20 DUP9 ADD SWAP8 POP PUSH1 0x1 DUP3 ADD SWAP2 POP JUMPDEST DUP5 DUP3 LT ISZERO PUSH2 0x2FD3 JUMPI PUSH2 0x2FC6 DUP9 PUSH2 0x2FC1 DUP4 PUSH2 0x27B5 JUMP JUMPDEST PUSH2 0x268C JUMP JUMPDEST PUSH1 0x20 DUP9 ADD SWAP8 POP PUSH1 0x1 DUP3 ADD SWAP2 POP JUMPDEST DUP5 DUP3 LT ISZERO PUSH2 0x2FFA JUMPI PUSH2 0x2FED DUP9 PUSH2 0x2FE8 DUP4 PUSH2 0x27DA JUMP JUMPDEST PUSH2 0x268C JUMP JUMPDEST PUSH1 0x20 DUP9 ADD SWAP8 POP PUSH1 0x1 DUP3 ADD SWAP2 POP JUMPDEST DUP5 DUP3 LT ISZERO PUSH2 0x3021 JUMPI PUSH2 0x3014 DUP9 PUSH2 0x300F DUP4 PUSH2 0x27FF JUMP JUMPDEST PUSH2 0x268C JUMP JUMPDEST PUSH1 0x20 DUP9 ADD SWAP8 POP PUSH1 0x1 DUP3 ADD SWAP2 POP JUMPDEST DUP5 DUP3 LT ISZERO PUSH2 0x3048 JUMPI PUSH2 0x303B DUP9 PUSH2 0x3036 DUP4 PUSH2 0x2824 JUMP JUMPDEST PUSH2 0x268C JUMP JUMPDEST PUSH1 0x20 DUP9 ADD SWAP8 POP PUSH1 0x1 DUP3 ADD SWAP2 POP JUMPDEST DUP5 DUP3 LT ISZERO PUSH2 0x306F JUMPI PUSH2 0x3062 DUP9 PUSH2 0x305D DUP4 PUSH2 0x2849 JUMP JUMPDEST PUSH2 0x268C JUMP JUMPDEST PUSH1 0x20 DUP9 ADD SWAP8 POP PUSH1 0x1 DUP3 ADD SWAP2 POP JUMPDEST DUP5 DUP3 LT ISZERO PUSH2 0x3096 JUMPI PUSH2 0x3089 DUP9 PUSH2 0x3084 DUP4 PUSH2 0x286E JUMP JUMPDEST PUSH2 0x268C JUMP JUMPDEST PUSH1 0x20 DUP9 ADD SWAP8 POP PUSH1 0x1 DUP3 ADD SWAP2 POP JUMPDEST DUP5 DUP3 LT ISZERO PUSH2 0x30BD JUMPI PUSH2 0x30B0 DUP9 PUSH2 0x30AB DUP4 PUSH2 0x2893 JUMP JUMPDEST PUSH2 0x268C JUMP JUMPDEST PUSH1 0x20 DUP9 ADD SWAP8 POP PUSH1 0x1 DUP3 ADD SWAP2 POP JUMPDEST DUP5 DUP3 LT ISZERO PUSH2 0x30E4 JUMPI PUSH2 0x30D7 DUP9 PUSH2 0x30D2 DUP4 PUSH2 0x28B8 JUMP JUMPDEST PUSH2 0x268C JUMP JUMPDEST PUSH1 0x20 DUP9 ADD SWAP8 POP PUSH1 0x1 DUP3 ADD SWAP2 POP JUMPDEST DUP5 DUP3 LT ISZERO PUSH2 0x310B JUMPI PUSH2 0x30FE DUP9 PUSH2 0x30F9 DUP4 PUSH2 0x28DD JUMP JUMPDEST PUSH2 0x268C JUMP JUMPDEST PUSH1 0x20 DUP9 ADD SWAP8 POP PUSH1 0x1 DUP3 ADD SWAP2 POP JUMPDEST DUP5 DUP3 LT ISZERO PUSH2 0x3132 JUMPI PUSH2 0x3125 DUP9 PUSH2 0x3120 DUP4 PUSH2 0x2902 JUMP JUMPDEST PUSH2 0x268C JUMP JUMPDEST PUSH1 0x20 DUP9 ADD SWAP8 POP PUSH1 0x1 DUP3 ADD SWAP2 POP JUMPDEST DUP5 DUP3 LT ISZERO PUSH2 0x3159 JUMPI PUSH2 0x314C DUP9 PUSH2 0x3147 DUP4 PUSH2 0x2927 JUMP JUMPDEST PUSH2 0x268C JUMP JUMPDEST PUSH1 0x20 DUP9 ADD SWAP8 POP PUSH1 0x1 DUP3 ADD SWAP2 POP JUMPDEST DUP5 DUP3 LT ISZERO PUSH2 0x3180 JUMPI PUSH2 0x3173 DUP9 PUSH2 0x316E DUP4 PUSH2 0x294C JUMP JUMPDEST PUSH2 0x268C JUMP JUMPDEST PUSH1 0x20 DUP9 ADD SWAP8 POP PUSH1 0x1 DUP3 ADD SWAP2 POP JUMPDEST DUP5 DUP3 LT ISZERO PUSH2 0x31A7 JUMPI PUSH2 0x319A DUP9 PUSH2 0x3195 DUP4 PUSH2 0x2971 JUMP JUMPDEST PUSH2 0x268C JUMP JUMPDEST PUSH1 0x20 DUP9 ADD SWAP8 POP PUSH1 0x1 DUP3 ADD SWAP2 POP JUMPDEST DUP5 DUP3 LT ISZERO PUSH2 0x31CE JUMPI PUSH2 0x31C1 DUP9 PUSH2 0x31BC DUP4 PUSH2 0x2996 JUMP JUMPDEST PUSH2 0x268C JUMP JUMPDEST PUSH1 0x20 DUP9 ADD SWAP8 POP PUSH1 0x1 DUP3 ADD SWAP2 POP JUMPDEST DUP5 DUP3 LT ISZERO PUSH2 0x31F5 JUMPI PUSH2 0x31E8 DUP9 PUSH2 0x31E3 DUP4 PUSH2 0x29BB JUMP JUMPDEST PUSH2 0x268C JUMP JUMPDEST PUSH1 0x20 DUP9 ADD SWAP8 POP PUSH1 0x1 DUP3 ADD SWAP2 POP JUMPDEST DUP5 DUP3 LT ISZERO PUSH2 0x321C JUMPI PUSH2 0x320F DUP9 PUSH2 0x320A DUP4 PUSH2 0x29E0 JUMP JUMPDEST PUSH2 0x268C JUMP JUMPDEST PUSH1 0x20 DUP9 ADD SWAP8 POP PUSH1 0x1 DUP3 ADD SWAP2 POP JUMPDEST DUP5 DUP3 LT ISZERO PUSH2 0x3243 JUMPI PUSH2 0x3236 DUP9 PUSH2 0x3231 DUP4 PUSH2 0x2A05 JUMP JUMPDEST PUSH2 0x268C JUMP JUMPDEST PUSH1 0x20 DUP9 ADD SWAP8 POP PUSH1 0x1 DUP3 ADD SWAP2 POP JUMPDEST DUP5 DUP3 LT ISZERO PUSH2 0x326A JUMPI PUSH2 0x325D DUP9 PUSH2 0x3258 DUP4 PUSH2 0x2A2A JUMP JUMPDEST PUSH2 0x268C JUMP JUMPDEST PUSH1 0x20 DUP9 ADD SWAP8 POP PUSH1 0x1 DUP3 ADD SWAP2 POP JUMPDEST DUP5 DUP3 LT ISZERO PUSH2 0x3291 JUMPI PUSH2 0x3284 DUP9 PUSH2 0x327F DUP4 PUSH2 0x2A4F JUMP JUMPDEST PUSH2 0x268C JUMP JUMPDEST PUSH1 0x20 DUP9 ADD SWAP8 POP PUSH1 0x1 DUP3 ADD SWAP2 POP JUMPDEST DUP5 DUP3 LT ISZERO PUSH2 0x32B8 JUMPI PUSH2 0x32AB DUP9 PUSH2 0x32A6 DUP4 PUSH2 0x2A74 JUMP JUMPDEST PUSH2 0x268C JUMP JUMPDEST PUSH1 0x20 DUP9 ADD SWAP8 POP PUSH1 0x1 DUP3 ADD SWAP2 POP JUMPDEST DUP5 DUP3 LT ISZERO PUSH2 0x32DF JUMPI PUSH2 0x32D2 DUP9 PUSH2 0x32CD DUP4 PUSH2 0x2A99 JUMP JUMPDEST PUSH2 0x268C JUMP JUMPDEST PUSH1 0x20 DUP9 ADD SWAP8 POP PUSH1 0x1 DUP3 ADD SWAP2 POP JUMPDEST DUP5 DUP3 LT ISZERO PUSH2 0x3306 JUMPI PUSH2 0x32F9 DUP9 PUSH2 0x32F4 DUP4 PUSH2 0x2ABE JUMP JUMPDEST PUSH2 0x268C JUMP JUMPDEST PUSH1 0x20 DUP9 ADD SWAP8 POP PUSH1 0x1 DUP3 ADD SWAP2 POP JUMPDEST DUP5 DUP3 LT ISZERO PUSH2 0x332D JUMPI PUSH2 0x3320 DUP9 PUSH2 0x331B DUP4 PUSH2 0x2AE3 JUMP JUMPDEST PUSH2 0x268C JUMP JUMPDEST PUSH1 0x20 DUP9 ADD SWAP8 POP PUSH1 0x1 DUP3 ADD SWAP2 POP JUMPDEST DUP5 DUP3 LT ISZERO PUSH2 0x3354 JUMPI PUSH2 0x3347 DUP9 PUSH2 0x3342 DUP4 PUSH2 0x2B08 JUMP JUMPDEST PUSH2 0x268C JUMP JUMPDEST PUSH1 0x20 DUP9 ADD SWAP8 POP PUSH1 0x1 DUP3 ADD SWAP2 POP JUMPDEST DUP5 DUP3 LT ISZERO PUSH2 0x337B JUMPI PUSH2 0x336E DUP9 PUSH2 0x3369 DUP4 PUSH2 0x2B2D JUMP JUMPDEST PUSH2 0x268C JUMP JUMPDEST PUSH1 0x20 DUP9 ADD SWAP8 POP PUSH1 0x1 DUP3 ADD SWAP2 POP JUMPDEST POP JUMPDEST DUP7 SWAP5 POP POP POP POP POP SWAP3 SWAP2 POP POP JUMP JUMPDEST PUSH0 PUSH2 0x3395 DUP3 DUP10 PUSH2 0x25CF JUMP JUMPDEST PUSH1 0x14 DUP3 ADD SWAP2 POP PUSH2 0x33A5 DUP3 DUP9 PUSH2 0x25EF JUMP JUMPDEST PUSH1 0x20 DUP3 ADD SWAP2 POP PUSH2 0x33B5 DUP3 DUP8 PUSH2 0x25EF JUMP JUMPDEST PUSH1 0x20 DUP3 ADD SWAP2 POP PUSH2 0x33C5 DUP3 DUP7 PUSH2 0x25EF JUMP JUMPDEST PUSH1 0x20 DUP3 ADD SWAP2 POP PUSH2 0x33D5 DUP3 DUP6 PUSH2 0x2618 JUMP JUMPDEST PUSH1 0x20 DUP3 ADD SWAP2 POP PUSH2 0x33E5 DUP3 DUP5 PUSH2 0x2B46 JUMP JUMPDEST SWAP2 POP DUP2 SWAP1 POP SWAP8 SWAP7 POP POP POP POP POP POP POP JUMP INVALID LOG2 PUSH5 0x6970667358 0x22 SLT KECCAK256 0xC4 SWAP2 CALLCODE GT AND CREATE2 CODECOPY DIV DELEGATECALL PUSH23 0x1E41BA8590F7D0BFC32BC7FDC6BE8C479598CD1B317F64 PUSH20 0x6F6C634300081A00330000000000000000000000 "
		},
		"gasEstimates": {
			"creation": {
				"codeDepositCost": "2671000",
				"executionCost": "infinite",
				"totalCost": "infinite"
			},
			"external": {
				"deal()": "infinite",
				"dealer()": "2505",
				"getHand()": "infinite",
				"hit()": "32388",
				"maxPlayers()": "2539",
				"phase()": "2626",
				"placeBet()": "84200",
				"stand()": "32431"
			},
			"internal": {
				"dealCardToPlayer(address)": "infinite",
				"dealInitialHand()": "infinite",
				"dealerReveal()": "infinite",
				"decide(enum BlockJack.PlayerStatus)": "infinite",
				"getCard(address)": "infinite",
				"getRandomNumber(address)": "infinite",
				"handleRoundForPlayers()": "infinite",
				"haveAllPlayersDecided()": "infinite",
				"markPlayerAsStand(address)": "25555",
				"notifyPlayersThatWon()": "infinite",
				"resetState()": "infinite",
				"sumOfHand(enum BlockJack.Card[] memory)": "infinite",
				"updateGamePhase(uint256,uint256)": "infinite"
			}
		},
		"methodIdentifiers": {
			"deal()": "553df021",
			"dealer()": "9de2ee21",
			"getHand()": "5fe3e36b",
			"hit()": "2ae3594a",
			"maxPlayers()": "4c2412a2",
			"phase()": "b1c9fe6e",
			"placeBet()": "f90f4560",
			"stand()": "c2897b10"
		}
	},
	"abi": [
		{
			"inputs": [
				{
					"internalType": "uint256",
					"name": "_roundSessionExpiryInSeconds",
					"type": "uint256"
				},
				{
					"internalType": "uint8",
					"name": "_maxPlayers",
					"type": "uint8"
				}
			],
			"stateMutability": "nonpayable",
			"type": "constructor"
		},
		{
			"anonymous": false,
			"inputs": [
				{
					"indexed": true,
					"internalType": "address",
					"name": "player",
					"type": "address"
				}
			],
			"name": "Bust",
			"type": "event"
		},
		{
			"anonymous": false,
			"inputs": [
				{
					"indexed": true,
					"internalType": "address",
					"name": "player",
					"type": "address"
				}
			],
			"name": "Hit",
			"type": "event"
		},
		{
			"anonymous": false,
			"inputs": [
				{
					"indexed": true,
					"internalType": "address",
					"name": "player",
					"type": "address"
				}
			],
			"name": "Stand",
			"type": "event"
		},
		{
			"anonymous": false,
			"inputs": [
				{
					"indexed": true,
					"internalType": "address",
					"name": "player",
					"type": "address"
				}
			],
			"name": "Win",
			"type": "event"
		},
		{
			"inputs": [],
			"name": "deal",
			"outputs": [],
			"stateMutability": "nonpayable",
			"type": "function"
		},
		{
			"inputs": [],
			"name": "dealer",
			"outputs": [
				{
					"internalType": "address",
					"name": "",
					"type": "address"
				}
			],
			"stateMutability": "view",
			"type": "function"
		},
		{
			"inputs": [],
			"name": "getHand",
			"outputs": [
				{
					"internalType": "uint256[]",
					"name": "",
					"type": "uint256[]"
				}
			],
			"stateMutability": "view",
			"type": "function"
		},
		{
			"inputs": [],
			"name": "hit",
			"outputs": [],
			"stateMutability": "nonpayable",
			"type": "function"
		},
		{
			"inputs": [],
			"name": "maxPlayers",
			"outputs": [
				{
					"internalType": "uint8",
					"name": "",
					"type": "uint8"
				}
			],
			"stateMutability": "view",
			"type": "function"
		},
		{
			"inputs": [],
			"name": "phase",
			"outputs": [
				{
					"internalType": "enum BlockJack.Phase",
					"name": "",
					"type": "uint8"
				}
			],
			"stateMutability": "view",
			"type": "function"
		},
		{
			"inputs": [],
			"name": "placeBet",
			"outputs": [],
			"stateMutability": "nonpayable",
			"type": "function"
		},
		{
			"inputs": [],
			"name": "stand",
			"outputs": [],
			"stateMutability": "nonpayable",
			"type": "function"
		}
	]
}